{
	"data": {
		"bytecode": {
			"linkReferences": {},
			"object": "608060405273d3bba1558e511475dcdb8227a81d9727fd3fa088600160006101000a81548173ffffffffffffffffffffffffffffffffffffffff021916908373ffffffffffffffffffffffffffffffffffffffff16021790555073d04a90223c3f91848acf0d97606afe3d1ae3c8c2600260006101000a81548173ffffffffffffffffffffffffffffffffffffffff021916908373ffffffffffffffffffffffffffffffffffffffff16021790555073f2e208c7425382497e3d93dc7ce4f6cb14347458600360006101000a81548173ffffffffffffffffffffffffffffffffffffffff021916908373ffffffffffffffffffffffffffffffffffffffff160217905550733813327caab8d0a1c6f7687600cd1c1143277aee600460006101000a81548173ffffffffffffffffffffffffffffffffffffffff021916908373ffffffffffffffffffffffffffffffffffffffff16021790555034801561016457600080fd5b50336000806101000a81548173ffffffffffffffffffffffffffffffffffffffff021916908373ffffffffffffffffffffffffffffffffffffffff160217905550610676806101b46000396000f3fe608060405234801561001057600080fd5b50600436106100365760003560e01c8063aad96ad41461003b578063c1219ee214610059575b600080fd5b610043610075565b60405161005091906103e5565b60405180910390f35b610073600480360381019061006e91906102d7565b610088565b005b601360009054906101000a900460ff1681565b600160009054906101000a900473ffffffffffffffffffffffffffffffffffffffff1673ffffffffffffffffffffffffffffffffffffffff163373ffffffffffffffffffffffffffffffffffffffff16146100e257600080fd5b6000601360006101000a81548160ff021916908360038111156101085761010761053a565b5b02179055504260058190555083600a908051906020019061012a9291906101af565b5082600990805190602001906101419291906101af565b5081600b8190555080600f819055507f6348b96cd753314fca27e0438470571f0860565da49b2c405e2b114957fc326d600160009054906101000a900473ffffffffffffffffffffffffffffffffffffffff166040516101a191906103b7565b60405180910390a150505050565b8280546101bb906104d7565b90600052602060002090601f0160209004810192826101dd5760008555610224565b82601f106101f657805160ff1916838001178555610224565b82800160010185558215610224579182015b82811115610223578251825591602001919060010190610208565b5b5090506102319190610235565b5090565b5b8082111561024e576000816000905550600101610236565b5090565b600061026561026084610425565b610400565b905082815260208101848484011115610281576102806105cc565b5b61028c8482856104c8565b509392505050565b600082601f8301126102a9576102a86105c7565b5b81356102b9848260208601610252565b91505092915050565b6000813590506102d181610629565b92915050565b600080600080608085870312156102f1576102f06105d6565b5b600085013567ffffffffffffffff81111561030f5761030e6105d1565b5b61031b87828801610294565b945050602085013567ffffffffffffffff81111561033c5761033b6105d1565b5b61034887828801610294565b9350506040610359878288016102c2565b925050606061036a878288016102c2565b91505092959194509250565b61037f81610467565b82525050565b61038e816104b6565b82525050565b60006103a1601e83610456565b91506103ac826105ec565b602082019050919050565b60006040820190506103cc6000830184610376565b81810360208301526103dd81610394565b905092915050565b60006020820190506103fa6000830184610385565b92915050565b600061040a61041b565b90506104168282610509565b919050565b6000604051905090565b600067ffffffffffffffff8211156104405761043f610598565b5b610449826105db565b9050602081019050919050565b600082825260208201905092915050565b60006104728261048c565b9050919050565b600081905061048782610615565b919050565b600073ffffffffffffffffffffffffffffffffffffffff82169050919050565b6000819050919050565b60006104c182610479565b9050919050565b82818337600083830152505050565b600060028204905060018216806104ef57607f821691505b6020821081141561050357610502610569565b5b50919050565b610512826105db565b810181811067ffffffffffffffff8211171561053157610530610598565b5b80604052505050565b7f4e487b7100000000000000000000000000000000000000000000000000000000600052602160045260246000fd5b7f4e487b7100000000000000000000000000000000000000000000000000000000600052602260045260246000fd5b7f4e487b7100000000000000000000000000000000000000000000000000000000600052604160045260246000fd5b600080fd5b600080fd5b600080fd5b600080fd5b6000601f19601f8301169050919050565b7f50726f6475637420526561647920666f7220646973747269627574696f6e0000600082015250565b600481106106265761062561053a565b5b50565b610632816104ac565b811461063d57600080fd5b5056fea26469706673582212204308e69f6df84fe701ba0da002e7e253a88ddd552796c27adf7d0a51828184ad64736f6c63430008060033",
			"opcodes": "PUSH1 0x80 PUSH1 0x40 MSTORE PUSH20 0xD3BBA1558E511475DCDB8227A81D9727FD3FA088 PUSH1 0x1 PUSH1 0x0 PUSH2 0x100 EXP DUP2 SLOAD DUP2 PUSH20 0xFFFFFFFFFFFFFFFFFFFFFFFFFFFFFFFFFFFFFFFF MUL NOT AND SWAP1 DUP4 PUSH20 0xFFFFFFFFFFFFFFFFFFFFFFFFFFFFFFFFFFFFFFFF AND MUL OR SWAP1 SSTORE POP PUSH20 0xD04A90223C3F91848ACF0D97606AFE3D1AE3C8C2 PUSH1 0x2 PUSH1 0x0 PUSH2 0x100 EXP DUP2 SLOAD DUP2 PUSH20 0xFFFFFFFFFFFFFFFFFFFFFFFFFFFFFFFFFFFFFFFF MUL NOT AND SWAP1 DUP4 PUSH20 0xFFFFFFFFFFFFFFFFFFFFFFFFFFFFFFFFFFFFFFFF AND MUL OR SWAP1 SSTORE POP PUSH20 0xF2E208C7425382497E3D93DC7CE4F6CB14347458 PUSH1 0x3 PUSH1 0x0 PUSH2 0x100 EXP DUP2 SLOAD DUP2 PUSH20 0xFFFFFFFFFFFFFFFFFFFFFFFFFFFFFFFFFFFFFFFF MUL NOT AND SWAP1 DUP4 PUSH20 0xFFFFFFFFFFFFFFFFFFFFFFFFFFFFFFFFFFFFFFFF AND MUL OR SWAP1 SSTORE POP PUSH20 0x3813327CAAB8D0A1C6F7687600CD1C1143277AEE PUSH1 0x4 PUSH1 0x0 PUSH2 0x100 EXP DUP2 SLOAD DUP2 PUSH20 0xFFFFFFFFFFFFFFFFFFFFFFFFFFFFFFFFFFFFFFFF MUL NOT AND SWAP1 DUP4 PUSH20 0xFFFFFFFFFFFFFFFFFFFFFFFFFFFFFFFFFFFFFFFF AND MUL OR SWAP1 SSTORE POP CALLVALUE DUP1 ISZERO PUSH2 0x164 JUMPI PUSH1 0x0 DUP1 REVERT JUMPDEST POP CALLER PUSH1 0x0 DUP1 PUSH2 0x100 EXP DUP2 SLOAD DUP2 PUSH20 0xFFFFFFFFFFFFFFFFFFFFFFFFFFFFFFFFFFFFFFFF MUL NOT AND SWAP1 DUP4 PUSH20 0xFFFFFFFFFFFFFFFFFFFFFFFFFFFFFFFFFFFFFFFF AND MUL OR SWAP1 SSTORE POP PUSH2 0x676 DUP1 PUSH2 0x1B4 PUSH1 0x0 CODECOPY PUSH1 0x0 RETURN INVALID PUSH1 0x80 PUSH1 0x40 MSTORE CALLVALUE DUP1 ISZERO PUSH2 0x10 JUMPI PUSH1 0x0 DUP1 REVERT JUMPDEST POP PUSH1 0x4 CALLDATASIZE LT PUSH2 0x36 JUMPI PUSH1 0x0 CALLDATALOAD PUSH1 0xE0 SHR DUP1 PUSH4 0xAAD96AD4 EQ PUSH2 0x3B JUMPI DUP1 PUSH4 0xC1219EE2 EQ PUSH2 0x59 JUMPI JUMPDEST PUSH1 0x0 DUP1 REVERT JUMPDEST PUSH2 0x43 PUSH2 0x75 JUMP JUMPDEST PUSH1 0x40 MLOAD PUSH2 0x50 SWAP2 SWAP1 PUSH2 0x3E5 JUMP JUMPDEST PUSH1 0x40 MLOAD DUP1 SWAP2 SUB SWAP1 RETURN JUMPDEST PUSH2 0x73 PUSH1 0x4 DUP1 CALLDATASIZE SUB DUP2 ADD SWAP1 PUSH2 0x6E SWAP2 SWAP1 PUSH2 0x2D7 JUMP JUMPDEST PUSH2 0x88 JUMP JUMPDEST STOP JUMPDEST PUSH1 0x13 PUSH1 0x0 SWAP1 SLOAD SWAP1 PUSH2 0x100 EXP SWAP1 DIV PUSH1 0xFF AND DUP2 JUMP JUMPDEST PUSH1 0x1 PUSH1 0x0 SWAP1 SLOAD SWAP1 PUSH2 0x100 EXP SWAP1 DIV PUSH20 0xFFFFFFFFFFFFFFFFFFFFFFFFFFFFFFFFFFFFFFFF AND PUSH20 0xFFFFFFFFFFFFFFFFFFFFFFFFFFFFFFFFFFFFFFFF AND CALLER PUSH20 0xFFFFFFFFFFFFFFFFFFFFFFFFFFFFFFFFFFFFFFFF AND EQ PUSH2 0xE2 JUMPI PUSH1 0x0 DUP1 REVERT JUMPDEST PUSH1 0x0 PUSH1 0x13 PUSH1 0x0 PUSH2 0x100 EXP DUP2 SLOAD DUP2 PUSH1 0xFF MUL NOT AND SWAP1 DUP4 PUSH1 0x3 DUP2 GT ISZERO PUSH2 0x108 JUMPI PUSH2 0x107 PUSH2 0x53A JUMP JUMPDEST JUMPDEST MUL OR SWAP1 SSTORE POP TIMESTAMP PUSH1 0x5 DUP2 SWAP1 SSTORE POP DUP4 PUSH1 0xA SWAP1 DUP1 MLOAD SWAP1 PUSH1 0x20 ADD SWAP1 PUSH2 0x12A SWAP3 SWAP2 SWAP1 PUSH2 0x1AF JUMP JUMPDEST POP DUP3 PUSH1 0x9 SWAP1 DUP1 MLOAD SWAP1 PUSH1 0x20 ADD SWAP1 PUSH2 0x141 SWAP3 SWAP2 SWAP1 PUSH2 0x1AF JUMP JUMPDEST POP DUP2 PUSH1 0xB DUP2 SWAP1 SSTORE POP DUP1 PUSH1 0xF DUP2 SWAP1 SSTORE POP PUSH32 0x6348B96CD753314FCA27E0438470571F0860565DA49B2C405E2B114957FC326D PUSH1 0x1 PUSH1 0x0 SWAP1 SLOAD SWAP1 PUSH2 0x100 EXP SWAP1 DIV PUSH20 0xFFFFFFFFFFFFFFFFFFFFFFFFFFFFFFFFFFFFFFFF AND PUSH1 0x40 MLOAD PUSH2 0x1A1 SWAP2 SWAP1 PUSH2 0x3B7 JUMP JUMPDEST PUSH1 0x40 MLOAD DUP1 SWAP2 SUB SWAP1 LOG1 POP POP POP POP JUMP JUMPDEST DUP3 DUP1 SLOAD PUSH2 0x1BB SWAP1 PUSH2 0x4D7 JUMP JUMPDEST SWAP1 PUSH1 0x0 MSTORE PUSH1 0x20 PUSH1 0x0 KECCAK256 SWAP1 PUSH1 0x1F ADD PUSH1 0x20 SWAP1 DIV DUP2 ADD SWAP3 DUP3 PUSH2 0x1DD JUMPI PUSH1 0x0 DUP6 SSTORE PUSH2 0x224 JUMP JUMPDEST DUP3 PUSH1 0x1F LT PUSH2 0x1F6 JUMPI DUP1 MLOAD PUSH1 0xFF NOT AND DUP4 DUP1 ADD OR DUP6 SSTORE PUSH2 0x224 JUMP JUMPDEST DUP3 DUP1 ADD PUSH1 0x1 ADD DUP6 SSTORE DUP3 ISZERO PUSH2 0x224 JUMPI SWAP2 DUP3 ADD JUMPDEST DUP3 DUP2 GT ISZERO PUSH2 0x223 JUMPI DUP3 MLOAD DUP3 SSTORE SWAP2 PUSH1 0x20 ADD SWAP2 SWAP1 PUSH1 0x1 ADD SWAP1 PUSH2 0x208 JUMP JUMPDEST JUMPDEST POP SWAP1 POP PUSH2 0x231 SWAP2 SWAP1 PUSH2 0x235 JUMP JUMPDEST POP SWAP1 JUMP JUMPDEST JUMPDEST DUP1 DUP3 GT ISZERO PUSH2 0x24E JUMPI PUSH1 0x0 DUP2 PUSH1 0x0 SWAP1 SSTORE POP PUSH1 0x1 ADD PUSH2 0x236 JUMP JUMPDEST POP SWAP1 JUMP JUMPDEST PUSH1 0x0 PUSH2 0x265 PUSH2 0x260 DUP5 PUSH2 0x425 JUMP JUMPDEST PUSH2 0x400 JUMP JUMPDEST SWAP1 POP DUP3 DUP2 MSTORE PUSH1 0x20 DUP2 ADD DUP5 DUP5 DUP5 ADD GT ISZERO PUSH2 0x281 JUMPI PUSH2 0x280 PUSH2 0x5CC JUMP JUMPDEST JUMPDEST PUSH2 0x28C DUP5 DUP3 DUP6 PUSH2 0x4C8 JUMP JUMPDEST POP SWAP4 SWAP3 POP POP POP JUMP JUMPDEST PUSH1 0x0 DUP3 PUSH1 0x1F DUP4 ADD SLT PUSH2 0x2A9 JUMPI PUSH2 0x2A8 PUSH2 0x5C7 JUMP JUMPDEST JUMPDEST DUP2 CALLDATALOAD PUSH2 0x2B9 DUP5 DUP3 PUSH1 0x20 DUP7 ADD PUSH2 0x252 JUMP JUMPDEST SWAP2 POP POP SWAP3 SWAP2 POP POP JUMP JUMPDEST PUSH1 0x0 DUP2 CALLDATALOAD SWAP1 POP PUSH2 0x2D1 DUP2 PUSH2 0x629 JUMP JUMPDEST SWAP3 SWAP2 POP POP JUMP JUMPDEST PUSH1 0x0 DUP1 PUSH1 0x0 DUP1 PUSH1 0x80 DUP6 DUP8 SUB SLT ISZERO PUSH2 0x2F1 JUMPI PUSH2 0x2F0 PUSH2 0x5D6 JUMP JUMPDEST JUMPDEST PUSH1 0x0 DUP6 ADD CALLDATALOAD PUSH8 0xFFFFFFFFFFFFFFFF DUP2 GT ISZERO PUSH2 0x30F JUMPI PUSH2 0x30E PUSH2 0x5D1 JUMP JUMPDEST JUMPDEST PUSH2 0x31B DUP8 DUP3 DUP9 ADD PUSH2 0x294 JUMP JUMPDEST SWAP5 POP POP PUSH1 0x20 DUP6 ADD CALLDATALOAD PUSH8 0xFFFFFFFFFFFFFFFF DUP2 GT ISZERO PUSH2 0x33C JUMPI PUSH2 0x33B PUSH2 0x5D1 JUMP JUMPDEST JUMPDEST PUSH2 0x348 DUP8 DUP3 DUP9 ADD PUSH2 0x294 JUMP JUMPDEST SWAP4 POP POP PUSH1 0x40 PUSH2 0x359 DUP8 DUP3 DUP9 ADD PUSH2 0x2C2 JUMP JUMPDEST SWAP3 POP POP PUSH1 0x60 PUSH2 0x36A DUP8 DUP3 DUP9 ADD PUSH2 0x2C2 JUMP JUMPDEST SWAP2 POP POP SWAP3 SWAP6 SWAP2 SWAP5 POP SWAP3 POP JUMP JUMPDEST PUSH2 0x37F DUP2 PUSH2 0x467 JUMP JUMPDEST DUP3 MSTORE POP POP JUMP JUMPDEST PUSH2 0x38E DUP2 PUSH2 0x4B6 JUMP JUMPDEST DUP3 MSTORE POP POP JUMP JUMPDEST PUSH1 0x0 PUSH2 0x3A1 PUSH1 0x1E DUP4 PUSH2 0x456 JUMP JUMPDEST SWAP2 POP PUSH2 0x3AC DUP3 PUSH2 0x5EC JUMP JUMPDEST PUSH1 0x20 DUP3 ADD SWAP1 POP SWAP2 SWAP1 POP JUMP JUMPDEST PUSH1 0x0 PUSH1 0x40 DUP3 ADD SWAP1 POP PUSH2 0x3CC PUSH1 0x0 DUP4 ADD DUP5 PUSH2 0x376 JUMP JUMPDEST DUP2 DUP2 SUB PUSH1 0x20 DUP4 ADD MSTORE PUSH2 0x3DD DUP2 PUSH2 0x394 JUMP JUMPDEST SWAP1 POP SWAP3 SWAP2 POP POP JUMP JUMPDEST PUSH1 0x0 PUSH1 0x20 DUP3 ADD SWAP1 POP PUSH2 0x3FA PUSH1 0x0 DUP4 ADD DUP5 PUSH2 0x385 JUMP JUMPDEST SWAP3 SWAP2 POP POP JUMP JUMPDEST PUSH1 0x0 PUSH2 0x40A PUSH2 0x41B JUMP JUMPDEST SWAP1 POP PUSH2 0x416 DUP3 DUP3 PUSH2 0x509 JUMP JUMPDEST SWAP2 SWAP1 POP JUMP JUMPDEST PUSH1 0x0 PUSH1 0x40 MLOAD SWAP1 POP SWAP1 JUMP JUMPDEST PUSH1 0x0 PUSH8 0xFFFFFFFFFFFFFFFF DUP3 GT ISZERO PUSH2 0x440 JUMPI PUSH2 0x43F PUSH2 0x598 JUMP JUMPDEST JUMPDEST PUSH2 0x449 DUP3 PUSH2 0x5DB JUMP JUMPDEST SWAP1 POP PUSH1 0x20 DUP2 ADD SWAP1 POP SWAP2 SWAP1 POP JUMP JUMPDEST PUSH1 0x0 DUP3 DUP3 MSTORE PUSH1 0x20 DUP3 ADD SWAP1 POP SWAP3 SWAP2 POP POP JUMP JUMPDEST PUSH1 0x0 PUSH2 0x472 DUP3 PUSH2 0x48C JUMP JUMPDEST SWAP1 POP SWAP2 SWAP1 POP JUMP JUMPDEST PUSH1 0x0 DUP2 SWAP1 POP PUSH2 0x487 DUP3 PUSH2 0x615 JUMP JUMPDEST SWAP2 SWAP1 POP JUMP JUMPDEST PUSH1 0x0 PUSH20 0xFFFFFFFFFFFFFFFFFFFFFFFFFFFFFFFFFFFFFFFF DUP3 AND SWAP1 POP SWAP2 SWAP1 POP JUMP JUMPDEST PUSH1 0x0 DUP2 SWAP1 POP SWAP2 SWAP1 POP JUMP JUMPDEST PUSH1 0x0 PUSH2 0x4C1 DUP3 PUSH2 0x479 JUMP JUMPDEST SWAP1 POP SWAP2 SWAP1 POP JUMP JUMPDEST DUP3 DUP2 DUP4 CALLDATACOPY PUSH1 0x0 DUP4 DUP4 ADD MSTORE POP POP POP JUMP JUMPDEST PUSH1 0x0 PUSH1 0x2 DUP3 DIV SWAP1 POP PUSH1 0x1 DUP3 AND DUP1 PUSH2 0x4EF JUMPI PUSH1 0x7F DUP3 AND SWAP2 POP JUMPDEST PUSH1 0x20 DUP3 LT DUP2 EQ ISZERO PUSH2 0x503 JUMPI PUSH2 0x502 PUSH2 0x569 JUMP JUMPDEST JUMPDEST POP SWAP2 SWAP1 POP JUMP JUMPDEST PUSH2 0x512 DUP3 PUSH2 0x5DB JUMP JUMPDEST DUP2 ADD DUP2 DUP2 LT PUSH8 0xFFFFFFFFFFFFFFFF DUP3 GT OR ISZERO PUSH2 0x531 JUMPI PUSH2 0x530 PUSH2 0x598 JUMP JUMPDEST JUMPDEST DUP1 PUSH1 0x40 MSTORE POP POP POP JUMP JUMPDEST PUSH32 0x4E487B7100000000000000000000000000000000000000000000000000000000 PUSH1 0x0 MSTORE PUSH1 0x21 PUSH1 0x4 MSTORE PUSH1 0x24 PUSH1 0x0 REVERT JUMPDEST PUSH32 0x4E487B7100000000000000000000000000000000000000000000000000000000 PUSH1 0x0 MSTORE PUSH1 0x22 PUSH1 0x4 MSTORE PUSH1 0x24 PUSH1 0x0 REVERT JUMPDEST PUSH32 0x4E487B7100000000000000000000000000000000000000000000000000000000 PUSH1 0x0 MSTORE PUSH1 0x41 PUSH1 0x4 MSTORE PUSH1 0x24 PUSH1 0x0 REVERT JUMPDEST PUSH1 0x0 DUP1 REVERT JUMPDEST PUSH1 0x0 DUP1 REVERT JUMPDEST PUSH1 0x0 DUP1 REVERT JUMPDEST PUSH1 0x0 DUP1 REVERT JUMPDEST PUSH1 0x0 PUSH1 0x1F NOT PUSH1 0x1F DUP4 ADD AND SWAP1 POP SWAP2 SWAP1 POP JUMP JUMPDEST PUSH32 0x50726F6475637420526561647920666F7220646973747269627574696F6E0000 PUSH1 0x0 DUP3 ADD MSTORE POP JUMP JUMPDEST PUSH1 0x4 DUP2 LT PUSH2 0x626 JUMPI PUSH2 0x625 PUSH2 0x53A JUMP JUMPDEST JUMPDEST POP JUMP JUMPDEST PUSH2 0x632 DUP2 PUSH2 0x4AC JUMP JUMPDEST DUP2 EQ PUSH2 0x63D JUMPI PUSH1 0x0 DUP1 REVERT JUMPDEST POP JUMP INVALID LOG2 PUSH5 0x6970667358 0x22 SLT KECCAK256 NUMBER ADDMOD 0xE6 SWAP16 PUSH14 0xF84FE701BA0DA002E7E253A88DDD SSTORE 0x27 SWAP7 0xC2 PUSH27 0xDF7D0A51828184AD64736F6C634300080600330000000000000000 "
		},
		"gasEstimates": {
			"creation": {
				"codeDepositCost": "330800",
				"executionCost": "121702",
				"totalCost": "452502"
			},
			"external": {
				"initiateDistribution(string,string,uint256,uint256)": "infinite",
				"trace()": "2538"
			},
			"internal": {
				"retailSell(uint256,uint256)": "infinite",
				"startDistribution(uint256,uint256)": "infinite",
				"startWholesale(uint256,uint256)": "infinite"
			}
		},
		"methodIdentifiers": {
			"initiateDistribution(string,string,uint256,uint256)": "c1219ee2",
			"trace()": "aad96ad4"
		}
	},
	"abi": [
		{
			"inputs": [],
			"stateMutability": "nonpayable",
			"type": "constructor"
		},
		{
			"anonymous": false,
			"inputs": [
				{
					"indexed": false,
					"internalType": "address",
					"name": "ad",
					"type": "address"
				},
				{
					"indexed": false,
					"internalType": "string",
					"name": "masg",
					"type": "string"
				}
			],
			"name": "DistributionInitiate",
			"type": "event"
		},
		{
			"anonymous": false,
			"inputs": [
				{
					"indexed": false,
					"internalType": "address",
					"name": "ad",
					"type": "address"
				},
				{
					"indexed": false,
					"internalType": "string",
					"name": "masg",
					"type": "string"
				}
			],
			"name": "DistributionStart",
			"type": "event"
		},
		{
			"anonymous": false,
			"inputs": [
				{
					"indexed": false,
					"internalType": "address",
					"name": "ad",
					"type": "address"
				},
				{
					"indexed": false,
					"internalType": "string",
					"name": "masg",
					"type": "string"
				}
			],
			"name": "RetailSell",
			"type": "event"
		},
		{
			"anonymous": false,
			"inputs": [
				{
					"indexed": false,
					"internalType": "address",
					"name": "ad",
					"type": "address"
				},
				{
					"indexed": false,
					"internalType": "string",
					"name": "masg",
					"type": "string"
				}
			],
			"name": "WholesellerStart",
			"type": "event"
		},
		{
			"inputs": [
				{
					"internalType": "string",
					"name": "name",
					"type": "string"
				},
				{
					"internalType": "string",
					"name": "id",
					"type": "string"
				},
				{
					"internalType": "uint256",
					"name": "price",
					"type": "uint256"
				},
				{
					"internalType": "uint256",
					"name": "quant",
					"type": "uint256"
				}
			],
			"name": "initiateDistribution",
			"outputs": [],
			"stateMutability": "nonpayable",
			"type": "function"
		},
		{
			"inputs": [],
			"name": "trace",
			"outputs": [
				{
					"internalType": "enum Agriculture.CurrentTrace",
					"name": "",
					"type": "uint8"
				}
			],
			"stateMutability": "view",
			"type": "function"
		}
	]
}