{
	"data": {
		"bytecode": {
			"linkReferences": {},
			"object": "60806040527346a1be93a7940252692c47d8201df307be023891600160006101000a81548173ffffffffffffffffffffffffffffffffffffffff021916908373ffffffffffffffffffffffffffffffffffffffff1602179055503480156200006657600080fd5b50336000806101000a81548173ffffffffffffffffffffffffffffffffffffffff021916908373ffffffffffffffffffffffffffffffffffffffff160217905550426009819055506000600a60006101000a81548160ff02191690836002811115620000d757620000d66200016c565b5b02179055506000600a60016101000a81548160ff021916908360028111156200010557620001046200016c565b5b02179055506000600a60026101000a81548160ff021916908360028111156200013357620001326200016c565b5b02179055506000600a60036101000a81548160ff021916908360038111156200016157620001606200016c565b5b02179055506200019b565b7f4e487b7100000000000000000000000000000000000000000000000000000000600052602160045260246000fd5b611beb80620001ab6000396000f3fe608060405234801561001057600080fd5b50600436106100935760003560e01c806378a655c51161006657806378a655c51461014657806397b6228814610164578063a61cf5df14610180578063efd754821461019c578063f15d4202146101ba57610093565b806320cb958e1461009857806328e22653146100c857806336f9259a146100f857806349b3f2dc14610116575b600080fd5b6100b260048036038101906100ad919061103c565b6101d8565b6040516100bf919061153d565b60405180910390f35b6100e260048036038101906100dd919061103c565b6102d0565b6040516100ef919061153d565b60405180910390f35b6101006103e4565b60405161010d91906114ec565b60405180910390f35b610130600480360381019061012b919061103c565b6103f7565b60405161013d919061153d565b60405180910390f35b61014e61050b565b60405161015b91906114d1565b60405180910390f35b61017e60048036038101906101799190610f0f565b61051e565b005b61019a60048036038101906101959190610f62565b610ce5565b005b6101a4610d97565b6040516101b19190611522565b60405180910390f35b6101c2610daa565b6040516101cf9190611507565b60405180910390f35b6060600160009054906101000a900473ffffffffffffffffffffffffffffffffffffffff1673ffffffffffffffffffffffffffffffffffffffff163373ffffffffffffffffffffffffffffffffffffffff161461023457600080fd5b60085482111561026b5761024b600360018461051e565b6040518060600160405280602c8152602001611b5d602c913990506102cb565b6008548210156102a257610282600360008461051e565b6040518060600160405280602d8152602001611b89602d913990506102cb565b6102af600060028461051e565b604051806060016040528060218152602001611b146021913990505b919050565b6060600160009054906101000a900473ffffffffffffffffffffffffffffffffffffffff1673ffffffffffffffffffffffffffffffffffffffff163373ffffffffffffffffffffffffffffffffffffffff161461032c57600080fd5b60075482111561036357610343600260018461051e565b604051806060016040528060278152602001611a9a6027913990506103df565b60075482101561039a5761037a600260008461051e565b604051806060016040528060288152602001611b356028913990506103df565b6103a66002808461051e565b6040518060400160405280601c81526020017f43757272656e742068756d6d6964697479206973206f7074696d756d0000000081525090505b919050565b600a60029054906101000a900460ff1681565b6060600160009054906101000a900473ffffffffffffffffffffffffffffffffffffffff1673ffffffffffffffffffffffffffffffffffffffff163373ffffffffffffffffffffffffffffffffffffffff161461045357600080fd5b600654821115610489576104696001808461051e565b604051806060016040528060298152602001611aeb602991399050610506565b6006548210156104c0576104a0600160008461051e565b6040518060600160405280602a8152602001611ac1602a91399050610506565b6104cd600160028461051e565b6040518060400160405280601e81526020017f43757272656e742074656d7065726174757265206973206f7074696d756d000081525090505b919050565b600a60019054906101000a900460ff1681565b600160009054906101000a900473ffffffffffffffffffffffffffffffffffffffff1673ffffffffffffffffffffffffffffffffffffffff163373ffffffffffffffffffffffffffffffffffffffff161461057857600080fd5b6001600381111561058c5761058b611750565b5b83600381111561059f5761059e611750565b5b14156107f1576001821415610668576001600a60006101000a81548160ff021916908360028111156105d4576105d3611750565b5b02179055506001600a60036101000a81548160ff021916908360038111156105ff576105fe611750565b5b02179055507f5a360976cd49f9ab1be035156832ef1d4dcae94b40e1a1c4049e986f5ad85bf5600160009054906101000a900473ffffffffffffffffffffffffffffffffffffffff168260065460405161065b939291906113f3565b60405180910390a16107ec565b600082141561072b576002600a60006101000a81548160ff0219169083600281111561069757610696611750565b5b02179055506001600a60036101000a81548160ff021916908360038111156106c2576106c1611750565b5b02179055507f5a360976cd49f9ab1be035156832ef1d4dcae94b40e1a1c4049e986f5ad85bf5600160009054906101000a900473ffffffffffffffffffffffffffffffffffffffff168260065460405161071e939291906112cb565b60405180910390a16107eb565b60028214156107ea576000600a60006101000a81548160ff0219169083600281111561075a57610759611750565b5b02179055506000600a60036101000a81548160ff0219169083600381111561078557610784611750565b5b02179055507f5a360976cd49f9ab1be035156832ef1d4dcae94b40e1a1c4049e986f5ad85bf5600160009054906101000a900473ffffffffffffffffffffffffffffffffffffffff16826006546040516107e193929190611281565b60405180910390a15b5b5b610ce0565b6002600381111561080557610804611750565b5b83600381111561081857610817611750565b5b1415610a6a5760018214156108e1576001600a60016101000a81548160ff0219169083600281111561084d5761084c611750565b5b02179055506002600a60036101000a81548160ff0219169083600381111561087857610877611750565b5b02179055507f2ff1926b8601eeec6e76084261d6ee6f10b92bbefd1e365ca4030a8afeedde0e600160009054906101000a900473ffffffffffffffffffffffffffffffffffffffff16826007546040516108d49392919061135f565b60405180910390a1610a65565b60008214156109a4576002600a60016101000a81548160ff021916908360028111156109105761090f611750565b5b02179055506002600a60036101000a81548160ff0219169083600381111561093b5761093a611750565b5b02179055507f2ff1926b8601eeec6e76084261d6ee6f10b92bbefd1e365ca4030a8afeedde0e600160009054906101000a900473ffffffffffffffffffffffffffffffffffffffff1682600754604051610997939291906113a9565b60405180910390a1610a64565b6002821415610a63576000600a60016101000a81548160ff021916908360028111156109d3576109d2611750565b5b02179055506000600a60036101000a81548160ff021916908360038111156109fe576109fd611750565b5b02179055507f2ff1926b8601eeec6e76084261d6ee6f10b92bbefd1e365ca4030a8afeedde0e600160009054906101000a900473ffffffffffffffffffffffffffffffffffffffff1682600754604051610a5a9392919061143d565b60405180910390a15b5b5b610cdf565b600380811115610a7d57610a7c611750565b5b836003811115610a9057610a8f611750565b5b1415610cde576001821415610b59576001600a60026101000a81548160ff02191690836002811115610ac557610ac4611750565b5b02179055506003600a60036101000a81548160ff02191690836003811115610af057610aef611750565b5b02179055507f9ac774029e52550369f6c6f7394341cde398d62c872a5f45913166b49ae5b0e3600160009054906101000a900473ffffffffffffffffffffffffffffffffffffffff1682600854604051610b4c93929190611315565b60405180910390a1610cdd565b6000821415610c1c576002600a60026101000a81548160ff02191690836002811115610b8857610b87611750565b5b02179055506003600a60036101000a81548160ff02191690836003811115610bb357610bb2611750565b5b02179055507f9ac774029e52550369f6c6f7394341cde398d62c872a5f45913166b49ae5b0e3600160009054906101000a900473ffffffffffffffffffffffffffffffffffffffff1682600854604051610c0f93929190611237565b60405180910390a1610cdc565b6002821415610cdb576000600a60026101000a81548160ff02191690836002811115610c4b57610c4a611750565b5b02179055506000600a60036101000a81548160ff02191690836003811115610c7657610c75611750565b5b02179055507f9ac774029e52550369f6c6f7394341cde398d62c872a5f45913166b49ae5b0e3600160009054906101000a900473ffffffffffffffffffffffffffffffffffffffff1682600854604051610cd293929190611487565b60405180910390a15b5b5b5b5b5b505050565b60008054906101000a900473ffffffffffffffffffffffffffffffffffffffff1673ffffffffffffffffffffffffffffffffffffffff163373ffffffffffffffffffffffffffffffffffffffff1614610d3d57600080fd5b8660029080519060200190610d53929190610dbd565b508560039080519060200190610d6a929190610dbd565b50846004819055508360058190555082600681905550816007819055508060088190555050505050505050565b600a60039054906101000a900460ff1681565b600a60009054906101000a900460ff1681565b828054610dc9906116ed565b90600052602060002090601f016020900481019282610deb5760008555610e32565b82601f10610e0457805160ff1916838001178555610e32565b82800160010185558215610e32579182015b82811115610e31578251825591602001919060010190610e16565b5b509050610e3f9190610e43565b5090565b5b80821115610e5c576000816000905550600101610e44565b5090565b6000610e73610e6e84611584565b61155f565b905082815260208101848484011115610e8f57610e8e6117e2565b5b610e9a8482856116ab565b509392505050565b600081359050610eb181611a5b565b92915050565b600081359050610ec681611a6b565b92915050565b600082601f830112610ee157610ee06117dd565b5b8135610ef1848260208601610e60565b91505092915050565b600081359050610f0981611a82565b92915050565b600080600060608486031215610f2857610f276117ec565b5b6000610f3686828701610ea2565b9350506020610f4786828701610eb7565b9250506040610f5886828701610efa565b9150509250925092565b600080600080600080600060e0888a031215610f8157610f806117ec565b5b600088013567ffffffffffffffff811115610f9f57610f9e6117e7565b5b610fab8a828b01610ecc565b975050602088013567ffffffffffffffff811115610fcc57610fcb6117e7565b5b610fd88a828b01610ecc565b9650506040610fe98a828b01610efa565b9550506060610ffa8a828b01610efa565b945050608061100b8a828b01610efa565b93505060a061101c8a828b01610efa565b92505060c061102d8a828b01610efa565b91505092959891949750929550565b600060208284031215611052576110516117ec565b5b600061106084828501610efa565b91505092915050565b611072816115d1565b82525050565b61108181611663565b82525050565b61109081611675565b82525050565b61109f81611687565b82525050565b6110ae81611699565b82525050565b60006110bf826115b5565b6110c981856115c0565b93506110d98185602086016116ba565b6110e2816117f1565b840191505092915050565b60006110fa6025836115c0565b915061110582611802565b604082019050919050565b600061111d6016836115c0565b915061112882611851565b602082019050919050565b60006111406022836115c0565b915061114b8261187a565b604082019050919050565b60006111636024836115c0565b915061116e826118c9565b604082019050919050565b6000611186601f836115c0565b915061119182611918565b602082019050919050565b60006111a96020836115c0565b91506111b482611941565b602082019050919050565b60006111cc6021836115c0565b91506111d78261196a565b604082019050919050565b60006111ef6014836115c0565b91506111fa826119b9565b602082019050919050565b60006112126019836115c0565b915061121d826119e2565b602082019050919050565b61123181611659565b82525050565b600060808201905061124c6000830186611069565b818103602083015261125d816110ed565b905061126c6040830185611228565b6112796060830184611228565b949350505050565b60006080820190506112966000830186611069565b81810360208301526112a781611110565b90506112b66040830185611228565b6112c36060830184611228565b949350505050565b60006080820190506112e06000830186611069565b81810360208301526112f181611133565b90506113006040830185611228565b61130d6060830184611228565b949350505050565b600060808201905061132a6000830186611069565b818103602083015261133b81611156565b905061134a6040830185611228565b6113576060830184611228565b949350505050565b60006080820190506113746000830186611069565b818103602083015261138581611179565b90506113946040830185611228565b6113a16060830184611228565b949350505050565b60006080820190506113be6000830186611069565b81810360208301526113cf8161119c565b90506113de6040830185611228565b6113eb6060830184611228565b949350505050565b60006080820190506114086000830186611069565b8181036020830152611419816111bf565b90506114286040830185611228565b6114356060830184611228565b949350505050565b60006080820190506114526000830186611069565b8181036020830152611463816111e2565b90506114726040830185611228565b61147f6060830184611228565b949350505050565b600060808201905061149c6000830186611069565b81810360208301526114ad81611205565b90506114bc6040830185611228565b6114c96060830184611228565b949350505050565b60006020820190506114e66000830184611078565b92915050565b60006020820190506115016000830184611087565b92915050565b600060208201905061151c6000830184611096565b92915050565b600060208201905061153760008301846110a5565b92915050565b6000602082019050818103600083015261155781846110b4565b905092915050565b600061156961157a565b9050611575828261171f565b919050565b6000604051905090565b600067ffffffffffffffff82111561159f5761159e6117ae565b5b6115a8826117f1565b9050602081019050919050565b600081519050919050565b600082825260208201905092915050565b60006115dc82611639565b9050919050565b60008190506115f182611a0b565b919050565b600081905061160482611a1f565b919050565b600081905061161782611a33565b919050565b600081905061162a82611a47565b919050565b6000819050919050565b600073ffffffffffffffffffffffffffffffffffffffff82169050919050565b6000819050919050565b600061166e826115e3565b9050919050565b6000611680826115f6565b9050919050565b600061169282611609565b9050919050565b60006116a48261161c565b9050919050565b82818337600083830152505050565b60005b838110156116d85780820151818401526020810190506116bd565b838111156116e7576000848401525b50505050565b6000600282049050600182168061170557607f821691505b602082108114156117195761171861177f565b5b50919050565b611728826117f1565b810181811067ffffffffffffffff82111715611747576117466117ae565b5b80604052505050565b7f4e487b7100000000000000000000000000000000000000000000000000000000600052602160045260246000fd5b7f4e487b7100000000000000000000000000000000000000000000000000000000600052602260045260246000fd5b7f4e487b7100000000000000000000000000000000000000000000000000000000600052604160045260246000fd5b600080fd5b600080fd5b600080fd5b600080fd5b6000601f19601f8301169050919050565b7f4c69676874206578706f737572652069732062656c6f7720746865207468726560008201527f73686f6c64000000000000000000000000000000000000000000000000000000602082015250565b7f54656d7061726174757265206973204f7074696d756d00000000000000000000600082015250565b7f54656d70617261747572652069732062656c6f7720746865207468726573686f60008201527f6c64000000000000000000000000000000000000000000000000000000000000602082015250565b7f4c69676874206578706f73757265206973206f7665722074686520746872657360008201527f686f6c6400000000000000000000000000000000000000000000000000000000602082015250565b7f48756d6d6964697479206973206f76657220746865207468726573686f6c6400600082015250565b7f48756d6d69646974792069732062656c6f7720746865207468726573686f6c64600082015250565b7f54656d7061726174757265206973206f76657220746865207468726573686f6c60008201527f6400000000000000000000000000000000000000000000000000000000000000602082015250565b7f48756d6d6964697479206973204f7074696d756d000000000000000000000000600082015250565b7f4c69676874206578706f73757265206973206f7074696d756d00000000000000600082015250565b60038110611a1c57611a1b611750565b5b50565b60038110611a3057611a2f611750565b5b50565b60038110611a4457611a43611750565b5b50565b60048110611a5857611a57611750565b5b50565b60048110611a6857600080fd5b50565b611a748161162f565b8114611a7f57600080fd5b50565b611a8b81611659565b8114611a9657600080fd5b5056fe43757272656e742068756d6d6964697479206973206f76657220746865207468726573686f6c6443757272656e742074656d70657261747572652069732062656c6f7720746865207468726573686f6c6443757272656e742074656d7065726174757265206973206f76657220746865207468726573686f6c6443757272656e74206c69676874206578706f73757265206973206f7074696d756d43757272656e742068756d6d69646974792069732062656c6f7720746865207468726573686f6c6443757272656e74206c69676874206578706f73757265206973206f76657220746865207468726573686f6c6443757272656e74206c69676874206578706f737572652069732062656c6f7720746865207468726573686f6c64a26469706673582212202ffb3daa7265af304c45aaa2050bf414b854bd54604c2f86f8ee510d29597de464736f6c63430008060033",
			"opcodes": "PUSH1 0x80 PUSH1 0x40 MSTORE PUSH20 0x46A1BE93A7940252692C47D8201DF307BE023891 PUSH1 0x1 PUSH1 0x0 PUSH2 0x100 EXP DUP2 SLOAD DUP2 PUSH20 0xFFFFFFFFFFFFFFFFFFFFFFFFFFFFFFFFFFFFFFFF MUL NOT AND SWAP1 DUP4 PUSH20 0xFFFFFFFFFFFFFFFFFFFFFFFFFFFFFFFFFFFFFFFF AND MUL OR SWAP1 SSTORE POP CALLVALUE DUP1 ISZERO PUSH3 0x66 JUMPI PUSH1 0x0 DUP1 REVERT JUMPDEST POP CALLER PUSH1 0x0 DUP1 PUSH2 0x100 EXP DUP2 SLOAD DUP2 PUSH20 0xFFFFFFFFFFFFFFFFFFFFFFFFFFFFFFFFFFFFFFFF MUL NOT AND SWAP1 DUP4 PUSH20 0xFFFFFFFFFFFFFFFFFFFFFFFFFFFFFFFFFFFFFFFF AND MUL OR SWAP1 SSTORE POP TIMESTAMP PUSH1 0x9 DUP2 SWAP1 SSTORE POP PUSH1 0x0 PUSH1 0xA PUSH1 0x0 PUSH2 0x100 EXP DUP2 SLOAD DUP2 PUSH1 0xFF MUL NOT AND SWAP1 DUP4 PUSH1 0x2 DUP2 GT ISZERO PUSH3 0xD7 JUMPI PUSH3 0xD6 PUSH3 0x16C JUMP JUMPDEST JUMPDEST MUL OR SWAP1 SSTORE POP PUSH1 0x0 PUSH1 0xA PUSH1 0x1 PUSH2 0x100 EXP DUP2 SLOAD DUP2 PUSH1 0xFF MUL NOT AND SWAP1 DUP4 PUSH1 0x2 DUP2 GT ISZERO PUSH3 0x105 JUMPI PUSH3 0x104 PUSH3 0x16C JUMP JUMPDEST JUMPDEST MUL OR SWAP1 SSTORE POP PUSH1 0x0 PUSH1 0xA PUSH1 0x2 PUSH2 0x100 EXP DUP2 SLOAD DUP2 PUSH1 0xFF MUL NOT AND SWAP1 DUP4 PUSH1 0x2 DUP2 GT ISZERO PUSH3 0x133 JUMPI PUSH3 0x132 PUSH3 0x16C JUMP JUMPDEST JUMPDEST MUL OR SWAP1 SSTORE POP PUSH1 0x0 PUSH1 0xA PUSH1 0x3 PUSH2 0x100 EXP DUP2 SLOAD DUP2 PUSH1 0xFF MUL NOT AND SWAP1 DUP4 PUSH1 0x3 DUP2 GT ISZERO PUSH3 0x161 JUMPI PUSH3 0x160 PUSH3 0x16C JUMP JUMPDEST JUMPDEST MUL OR SWAP1 SSTORE POP PUSH3 0x19B JUMP JUMPDEST PUSH32 0x4E487B7100000000000000000000000000000000000000000000000000000000 PUSH1 0x0 MSTORE PUSH1 0x21 PUSH1 0x4 MSTORE PUSH1 0x24 PUSH1 0x0 REVERT JUMPDEST PUSH2 0x1BEB DUP1 PUSH3 0x1AB PUSH1 0x0 CODECOPY PUSH1 0x0 RETURN INVALID PUSH1 0x80 PUSH1 0x40 MSTORE CALLVALUE DUP1 ISZERO PUSH2 0x10 JUMPI PUSH1 0x0 DUP1 REVERT JUMPDEST POP PUSH1 0x4 CALLDATASIZE LT PUSH2 0x93 JUMPI PUSH1 0x0 CALLDATALOAD PUSH1 0xE0 SHR DUP1 PUSH4 0x78A655C5 GT PUSH2 0x66 JUMPI DUP1 PUSH4 0x78A655C5 EQ PUSH2 0x146 JUMPI DUP1 PUSH4 0x97B62288 EQ PUSH2 0x164 JUMPI DUP1 PUSH4 0xA61CF5DF EQ PUSH2 0x180 JUMPI DUP1 PUSH4 0xEFD75482 EQ PUSH2 0x19C JUMPI DUP1 PUSH4 0xF15D4202 EQ PUSH2 0x1BA JUMPI PUSH2 0x93 JUMP JUMPDEST DUP1 PUSH4 0x20CB958E EQ PUSH2 0x98 JUMPI DUP1 PUSH4 0x28E22653 EQ PUSH2 0xC8 JUMPI DUP1 PUSH4 0x36F9259A EQ PUSH2 0xF8 JUMPI DUP1 PUSH4 0x49B3F2DC EQ PUSH2 0x116 JUMPI JUMPDEST PUSH1 0x0 DUP1 REVERT JUMPDEST PUSH2 0xB2 PUSH1 0x4 DUP1 CALLDATASIZE SUB DUP2 ADD SWAP1 PUSH2 0xAD SWAP2 SWAP1 PUSH2 0x103C JUMP JUMPDEST PUSH2 0x1D8 JUMP JUMPDEST PUSH1 0x40 MLOAD PUSH2 0xBF SWAP2 SWAP1 PUSH2 0x153D JUMP JUMPDEST PUSH1 0x40 MLOAD DUP1 SWAP2 SUB SWAP1 RETURN JUMPDEST PUSH2 0xE2 PUSH1 0x4 DUP1 CALLDATASIZE SUB DUP2 ADD SWAP1 PUSH2 0xDD SWAP2 SWAP1 PUSH2 0x103C JUMP JUMPDEST PUSH2 0x2D0 JUMP JUMPDEST PUSH1 0x40 MLOAD PUSH2 0xEF SWAP2 SWAP1 PUSH2 0x153D JUMP JUMPDEST PUSH1 0x40 MLOAD DUP1 SWAP2 SUB SWAP1 RETURN JUMPDEST PUSH2 0x100 PUSH2 0x3E4 JUMP JUMPDEST PUSH1 0x40 MLOAD PUSH2 0x10D SWAP2 SWAP1 PUSH2 0x14EC JUMP JUMPDEST PUSH1 0x40 MLOAD DUP1 SWAP2 SUB SWAP1 RETURN JUMPDEST PUSH2 0x130 PUSH1 0x4 DUP1 CALLDATASIZE SUB DUP2 ADD SWAP1 PUSH2 0x12B SWAP2 SWAP1 PUSH2 0x103C JUMP JUMPDEST PUSH2 0x3F7 JUMP JUMPDEST PUSH1 0x40 MLOAD PUSH2 0x13D SWAP2 SWAP1 PUSH2 0x153D JUMP JUMPDEST PUSH1 0x40 MLOAD DUP1 SWAP2 SUB SWAP1 RETURN JUMPDEST PUSH2 0x14E PUSH2 0x50B JUMP JUMPDEST PUSH1 0x40 MLOAD PUSH2 0x15B SWAP2 SWAP1 PUSH2 0x14D1 JUMP JUMPDEST PUSH1 0x40 MLOAD DUP1 SWAP2 SUB SWAP1 RETURN JUMPDEST PUSH2 0x17E PUSH1 0x4 DUP1 CALLDATASIZE SUB DUP2 ADD SWAP1 PUSH2 0x179 SWAP2 SWAP1 PUSH2 0xF0F JUMP JUMPDEST PUSH2 0x51E JUMP JUMPDEST STOP JUMPDEST PUSH2 0x19A PUSH1 0x4 DUP1 CALLDATASIZE SUB DUP2 ADD SWAP1 PUSH2 0x195 SWAP2 SWAP1 PUSH2 0xF62 JUMP JUMPDEST PUSH2 0xCE5 JUMP JUMPDEST STOP JUMPDEST PUSH2 0x1A4 PUSH2 0xD97 JUMP JUMPDEST PUSH1 0x40 MLOAD PUSH2 0x1B1 SWAP2 SWAP1 PUSH2 0x1522 JUMP JUMPDEST PUSH1 0x40 MLOAD DUP1 SWAP2 SUB SWAP1 RETURN JUMPDEST PUSH2 0x1C2 PUSH2 0xDAA JUMP JUMPDEST PUSH1 0x40 MLOAD PUSH2 0x1CF SWAP2 SWAP1 PUSH2 0x1507 JUMP JUMPDEST PUSH1 0x40 MLOAD DUP1 SWAP2 SUB SWAP1 RETURN JUMPDEST PUSH1 0x60 PUSH1 0x1 PUSH1 0x0 SWAP1 SLOAD SWAP1 PUSH2 0x100 EXP SWAP1 DIV PUSH20 0xFFFFFFFFFFFFFFFFFFFFFFFFFFFFFFFFFFFFFFFF AND PUSH20 0xFFFFFFFFFFFFFFFFFFFFFFFFFFFFFFFFFFFFFFFF AND CALLER PUSH20 0xFFFFFFFFFFFFFFFFFFFFFFFFFFFFFFFFFFFFFFFF AND EQ PUSH2 0x234 JUMPI PUSH1 0x0 DUP1 REVERT JUMPDEST PUSH1 0x8 SLOAD DUP3 GT ISZERO PUSH2 0x26B JUMPI PUSH2 0x24B PUSH1 0x3 PUSH1 0x1 DUP5 PUSH2 0x51E JUMP JUMPDEST PUSH1 0x40 MLOAD DUP1 PUSH1 0x60 ADD PUSH1 0x40 MSTORE DUP1 PUSH1 0x2C DUP2 MSTORE PUSH1 0x20 ADD PUSH2 0x1B5D PUSH1 0x2C SWAP2 CODECOPY SWAP1 POP PUSH2 0x2CB JUMP JUMPDEST PUSH1 0x8 SLOAD DUP3 LT ISZERO PUSH2 0x2A2 JUMPI PUSH2 0x282 PUSH1 0x3 PUSH1 0x0 DUP5 PUSH2 0x51E JUMP JUMPDEST PUSH1 0x40 MLOAD DUP1 PUSH1 0x60 ADD PUSH1 0x40 MSTORE DUP1 PUSH1 0x2D DUP2 MSTORE PUSH1 0x20 ADD PUSH2 0x1B89 PUSH1 0x2D SWAP2 CODECOPY SWAP1 POP PUSH2 0x2CB JUMP JUMPDEST PUSH2 0x2AF PUSH1 0x0 PUSH1 0x2 DUP5 PUSH2 0x51E JUMP JUMPDEST PUSH1 0x40 MLOAD DUP1 PUSH1 0x60 ADD PUSH1 0x40 MSTORE DUP1 PUSH1 0x21 DUP2 MSTORE PUSH1 0x20 ADD PUSH2 0x1B14 PUSH1 0x21 SWAP2 CODECOPY SWAP1 POP JUMPDEST SWAP2 SWAP1 POP JUMP JUMPDEST PUSH1 0x60 PUSH1 0x1 PUSH1 0x0 SWAP1 SLOAD SWAP1 PUSH2 0x100 EXP SWAP1 DIV PUSH20 0xFFFFFFFFFFFFFFFFFFFFFFFFFFFFFFFFFFFFFFFF AND PUSH20 0xFFFFFFFFFFFFFFFFFFFFFFFFFFFFFFFFFFFFFFFF AND CALLER PUSH20 0xFFFFFFFFFFFFFFFFFFFFFFFFFFFFFFFFFFFFFFFF AND EQ PUSH2 0x32C JUMPI PUSH1 0x0 DUP1 REVERT JUMPDEST PUSH1 0x7 SLOAD DUP3 GT ISZERO PUSH2 0x363 JUMPI PUSH2 0x343 PUSH1 0x2 PUSH1 0x1 DUP5 PUSH2 0x51E JUMP JUMPDEST PUSH1 0x40 MLOAD DUP1 PUSH1 0x60 ADD PUSH1 0x40 MSTORE DUP1 PUSH1 0x27 DUP2 MSTORE PUSH1 0x20 ADD PUSH2 0x1A9A PUSH1 0x27 SWAP2 CODECOPY SWAP1 POP PUSH2 0x3DF JUMP JUMPDEST PUSH1 0x7 SLOAD DUP3 LT ISZERO PUSH2 0x39A JUMPI PUSH2 0x37A PUSH1 0x2 PUSH1 0x0 DUP5 PUSH2 0x51E JUMP JUMPDEST PUSH1 0x40 MLOAD DUP1 PUSH1 0x60 ADD PUSH1 0x40 MSTORE DUP1 PUSH1 0x28 DUP2 MSTORE PUSH1 0x20 ADD PUSH2 0x1B35 PUSH1 0x28 SWAP2 CODECOPY SWAP1 POP PUSH2 0x3DF JUMP JUMPDEST PUSH2 0x3A6 PUSH1 0x2 DUP1 DUP5 PUSH2 0x51E JUMP JUMPDEST PUSH1 0x40 MLOAD DUP1 PUSH1 0x40 ADD PUSH1 0x40 MSTORE DUP1 PUSH1 0x1C DUP2 MSTORE PUSH1 0x20 ADD PUSH32 0x43757272656E742068756D6D6964697479206973206F7074696D756D00000000 DUP2 MSTORE POP SWAP1 POP JUMPDEST SWAP2 SWAP1 POP JUMP JUMPDEST PUSH1 0xA PUSH1 0x2 SWAP1 SLOAD SWAP1 PUSH2 0x100 EXP SWAP1 DIV PUSH1 0xFF AND DUP2 JUMP JUMPDEST PUSH1 0x60 PUSH1 0x1 PUSH1 0x0 SWAP1 SLOAD SWAP1 PUSH2 0x100 EXP SWAP1 DIV PUSH20 0xFFFFFFFFFFFFFFFFFFFFFFFFFFFFFFFFFFFFFFFF AND PUSH20 0xFFFFFFFFFFFFFFFFFFFFFFFFFFFFFFFFFFFFFFFF AND CALLER PUSH20 0xFFFFFFFFFFFFFFFFFFFFFFFFFFFFFFFFFFFFFFFF AND EQ PUSH2 0x453 JUMPI PUSH1 0x0 DUP1 REVERT JUMPDEST PUSH1 0x6 SLOAD DUP3 GT ISZERO PUSH2 0x489 JUMPI PUSH2 0x469 PUSH1 0x1 DUP1 DUP5 PUSH2 0x51E JUMP JUMPDEST PUSH1 0x40 MLOAD DUP1 PUSH1 0x60 ADD PUSH1 0x40 MSTORE DUP1 PUSH1 0x29 DUP2 MSTORE PUSH1 0x20 ADD PUSH2 0x1AEB PUSH1 0x29 SWAP2 CODECOPY SWAP1 POP PUSH2 0x506 JUMP JUMPDEST PUSH1 0x6 SLOAD DUP3 LT ISZERO PUSH2 0x4C0 JUMPI PUSH2 0x4A0 PUSH1 0x1 PUSH1 0x0 DUP5 PUSH2 0x51E JUMP JUMPDEST PUSH1 0x40 MLOAD DUP1 PUSH1 0x60 ADD PUSH1 0x40 MSTORE DUP1 PUSH1 0x2A DUP2 MSTORE PUSH1 0x20 ADD PUSH2 0x1AC1 PUSH1 0x2A SWAP2 CODECOPY SWAP1 POP PUSH2 0x506 JUMP JUMPDEST PUSH2 0x4CD PUSH1 0x1 PUSH1 0x2 DUP5 PUSH2 0x51E JUMP JUMPDEST PUSH1 0x40 MLOAD DUP1 PUSH1 0x40 ADD PUSH1 0x40 MSTORE DUP1 PUSH1 0x1E DUP2 MSTORE PUSH1 0x20 ADD PUSH32 0x43757272656E742074656D7065726174757265206973206F7074696D756D0000 DUP2 MSTORE POP SWAP1 POP JUMPDEST SWAP2 SWAP1 POP JUMP JUMPDEST PUSH1 0xA PUSH1 0x1 SWAP1 SLOAD SWAP1 PUSH2 0x100 EXP SWAP1 DIV PUSH1 0xFF AND DUP2 JUMP JUMPDEST PUSH1 0x1 PUSH1 0x0 SWAP1 SLOAD SWAP1 PUSH2 0x100 EXP SWAP1 DIV PUSH20 0xFFFFFFFFFFFFFFFFFFFFFFFFFFFFFFFFFFFFFFFF AND PUSH20 0xFFFFFFFFFFFFFFFFFFFFFFFFFFFFFFFFFFFFFFFF AND CALLER PUSH20 0xFFFFFFFFFFFFFFFFFFFFFFFFFFFFFFFFFFFFFFFF AND EQ PUSH2 0x578 JUMPI PUSH1 0x0 DUP1 REVERT JUMPDEST PUSH1 0x1 PUSH1 0x3 DUP2 GT ISZERO PUSH2 0x58C JUMPI PUSH2 0x58B PUSH2 0x1750 JUMP JUMPDEST JUMPDEST DUP4 PUSH1 0x3 DUP2 GT ISZERO PUSH2 0x59F JUMPI PUSH2 0x59E PUSH2 0x1750 JUMP JUMPDEST JUMPDEST EQ ISZERO PUSH2 0x7F1 JUMPI PUSH1 0x1 DUP3 EQ ISZERO PUSH2 0x668 JUMPI PUSH1 0x1 PUSH1 0xA PUSH1 0x0 PUSH2 0x100 EXP DUP2 SLOAD DUP2 PUSH1 0xFF MUL NOT AND SWAP1 DUP4 PUSH1 0x2 DUP2 GT ISZERO PUSH2 0x5D4 JUMPI PUSH2 0x5D3 PUSH2 0x1750 JUMP JUMPDEST JUMPDEST MUL OR SWAP1 SSTORE POP PUSH1 0x1 PUSH1 0xA PUSH1 0x3 PUSH2 0x100 EXP DUP2 SLOAD DUP2 PUSH1 0xFF MUL NOT AND SWAP1 DUP4 PUSH1 0x3 DUP2 GT ISZERO PUSH2 0x5FF JUMPI PUSH2 0x5FE PUSH2 0x1750 JUMP JUMPDEST JUMPDEST MUL OR SWAP1 SSTORE POP PUSH32 0x5A360976CD49F9AB1BE035156832EF1D4DCAE94B40E1A1C4049E986F5AD85BF5 PUSH1 0x1 PUSH1 0x0 SWAP1 SLOAD SWAP1 PUSH2 0x100 EXP SWAP1 DIV PUSH20 0xFFFFFFFFFFFFFFFFFFFFFFFFFFFFFFFFFFFFFFFF AND DUP3 PUSH1 0x6 SLOAD PUSH1 0x40 MLOAD PUSH2 0x65B SWAP4 SWAP3 SWAP2 SWAP1 PUSH2 0x13F3 JUMP JUMPDEST PUSH1 0x40 MLOAD DUP1 SWAP2 SUB SWAP1 LOG1 PUSH2 0x7EC JUMP JUMPDEST PUSH1 0x0 DUP3 EQ ISZERO PUSH2 0x72B JUMPI PUSH1 0x2 PUSH1 0xA PUSH1 0x0 PUSH2 0x100 EXP DUP2 SLOAD DUP2 PUSH1 0xFF MUL NOT AND SWAP1 DUP4 PUSH1 0x2 DUP2 GT ISZERO PUSH2 0x697 JUMPI PUSH2 0x696 PUSH2 0x1750 JUMP JUMPDEST JUMPDEST MUL OR SWAP1 SSTORE POP PUSH1 0x1 PUSH1 0xA PUSH1 0x3 PUSH2 0x100 EXP DUP2 SLOAD DUP2 PUSH1 0xFF MUL NOT AND SWAP1 DUP4 PUSH1 0x3 DUP2 GT ISZERO PUSH2 0x6C2 JUMPI PUSH2 0x6C1 PUSH2 0x1750 JUMP JUMPDEST JUMPDEST MUL OR SWAP1 SSTORE POP PUSH32 0x5A360976CD49F9AB1BE035156832EF1D4DCAE94B40E1A1C4049E986F5AD85BF5 PUSH1 0x1 PUSH1 0x0 SWAP1 SLOAD SWAP1 PUSH2 0x100 EXP SWAP1 DIV PUSH20 0xFFFFFFFFFFFFFFFFFFFFFFFFFFFFFFFFFFFFFFFF AND DUP3 PUSH1 0x6 SLOAD PUSH1 0x40 MLOAD PUSH2 0x71E SWAP4 SWAP3 SWAP2 SWAP1 PUSH2 0x12CB JUMP JUMPDEST PUSH1 0x40 MLOAD DUP1 SWAP2 SUB SWAP1 LOG1 PUSH2 0x7EB JUMP JUMPDEST PUSH1 0x2 DUP3 EQ ISZERO PUSH2 0x7EA JUMPI PUSH1 0x0 PUSH1 0xA PUSH1 0x0 PUSH2 0x100 EXP DUP2 SLOAD DUP2 PUSH1 0xFF MUL NOT AND SWAP1 DUP4 PUSH1 0x2 DUP2 GT ISZERO PUSH2 0x75A JUMPI PUSH2 0x759 PUSH2 0x1750 JUMP JUMPDEST JUMPDEST MUL OR SWAP1 SSTORE POP PUSH1 0x0 PUSH1 0xA PUSH1 0x3 PUSH2 0x100 EXP DUP2 SLOAD DUP2 PUSH1 0xFF MUL NOT AND SWAP1 DUP4 PUSH1 0x3 DUP2 GT ISZERO PUSH2 0x785 JUMPI PUSH2 0x784 PUSH2 0x1750 JUMP JUMPDEST JUMPDEST MUL OR SWAP1 SSTORE POP PUSH32 0x5A360976CD49F9AB1BE035156832EF1D4DCAE94B40E1A1C4049E986F5AD85BF5 PUSH1 0x1 PUSH1 0x0 SWAP1 SLOAD SWAP1 PUSH2 0x100 EXP SWAP1 DIV PUSH20 0xFFFFFFFFFFFFFFFFFFFFFFFFFFFFFFFFFFFFFFFF AND DUP3 PUSH1 0x6 SLOAD PUSH1 0x40 MLOAD PUSH2 0x7E1 SWAP4 SWAP3 SWAP2 SWAP1 PUSH2 0x1281 JUMP JUMPDEST PUSH1 0x40 MLOAD DUP1 SWAP2 SUB SWAP1 LOG1 JUMPDEST JUMPDEST JUMPDEST PUSH2 0xCE0 JUMP JUMPDEST PUSH1 0x2 PUSH1 0x3 DUP2 GT ISZERO PUSH2 0x805 JUMPI PUSH2 0x804 PUSH2 0x1750 JUMP JUMPDEST JUMPDEST DUP4 PUSH1 0x3 DUP2 GT ISZERO PUSH2 0x818 JUMPI PUSH2 0x817 PUSH2 0x1750 JUMP JUMPDEST JUMPDEST EQ ISZERO PUSH2 0xA6A JUMPI PUSH1 0x1 DUP3 EQ ISZERO PUSH2 0x8E1 JUMPI PUSH1 0x1 PUSH1 0xA PUSH1 0x1 PUSH2 0x100 EXP DUP2 SLOAD DUP2 PUSH1 0xFF MUL NOT AND SWAP1 DUP4 PUSH1 0x2 DUP2 GT ISZERO PUSH2 0x84D JUMPI PUSH2 0x84C PUSH2 0x1750 JUMP JUMPDEST JUMPDEST MUL OR SWAP1 SSTORE POP PUSH1 0x2 PUSH1 0xA PUSH1 0x3 PUSH2 0x100 EXP DUP2 SLOAD DUP2 PUSH1 0xFF MUL NOT AND SWAP1 DUP4 PUSH1 0x3 DUP2 GT ISZERO PUSH2 0x878 JUMPI PUSH2 0x877 PUSH2 0x1750 JUMP JUMPDEST JUMPDEST MUL OR SWAP1 SSTORE POP PUSH32 0x2FF1926B8601EEEC6E76084261D6EE6F10B92BBEFD1E365CA4030A8AFEEDDE0E PUSH1 0x1 PUSH1 0x0 SWAP1 SLOAD SWAP1 PUSH2 0x100 EXP SWAP1 DIV PUSH20 0xFFFFFFFFFFFFFFFFFFFFFFFFFFFFFFFFFFFFFFFF AND DUP3 PUSH1 0x7 SLOAD PUSH1 0x40 MLOAD PUSH2 0x8D4 SWAP4 SWAP3 SWAP2 SWAP1 PUSH2 0x135F JUMP JUMPDEST PUSH1 0x40 MLOAD DUP1 SWAP2 SUB SWAP1 LOG1 PUSH2 0xA65 JUMP JUMPDEST PUSH1 0x0 DUP3 EQ ISZERO PUSH2 0x9A4 JUMPI PUSH1 0x2 PUSH1 0xA PUSH1 0x1 PUSH2 0x100 EXP DUP2 SLOAD DUP2 PUSH1 0xFF MUL NOT AND SWAP1 DUP4 PUSH1 0x2 DUP2 GT ISZERO PUSH2 0x910 JUMPI PUSH2 0x90F PUSH2 0x1750 JUMP JUMPDEST JUMPDEST MUL OR SWAP1 SSTORE POP PUSH1 0x2 PUSH1 0xA PUSH1 0x3 PUSH2 0x100 EXP DUP2 SLOAD DUP2 PUSH1 0xFF MUL NOT AND SWAP1 DUP4 PUSH1 0x3 DUP2 GT ISZERO PUSH2 0x93B JUMPI PUSH2 0x93A PUSH2 0x1750 JUMP JUMPDEST JUMPDEST MUL OR SWAP1 SSTORE POP PUSH32 0x2FF1926B8601EEEC6E76084261D6EE6F10B92BBEFD1E365CA4030A8AFEEDDE0E PUSH1 0x1 PUSH1 0x0 SWAP1 SLOAD SWAP1 PUSH2 0x100 EXP SWAP1 DIV PUSH20 0xFFFFFFFFFFFFFFFFFFFFFFFFFFFFFFFFFFFFFFFF AND DUP3 PUSH1 0x7 SLOAD PUSH1 0x40 MLOAD PUSH2 0x997 SWAP4 SWAP3 SWAP2 SWAP1 PUSH2 0x13A9 JUMP JUMPDEST PUSH1 0x40 MLOAD DUP1 SWAP2 SUB SWAP1 LOG1 PUSH2 0xA64 JUMP JUMPDEST PUSH1 0x2 DUP3 EQ ISZERO PUSH2 0xA63 JUMPI PUSH1 0x0 PUSH1 0xA PUSH1 0x1 PUSH2 0x100 EXP DUP2 SLOAD DUP2 PUSH1 0xFF MUL NOT AND SWAP1 DUP4 PUSH1 0x2 DUP2 GT ISZERO PUSH2 0x9D3 JUMPI PUSH2 0x9D2 PUSH2 0x1750 JUMP JUMPDEST JUMPDEST MUL OR SWAP1 SSTORE POP PUSH1 0x0 PUSH1 0xA PUSH1 0x3 PUSH2 0x100 EXP DUP2 SLOAD DUP2 PUSH1 0xFF MUL NOT AND SWAP1 DUP4 PUSH1 0x3 DUP2 GT ISZERO PUSH2 0x9FE JUMPI PUSH2 0x9FD PUSH2 0x1750 JUMP JUMPDEST JUMPDEST MUL OR SWAP1 SSTORE POP PUSH32 0x2FF1926B8601EEEC6E76084261D6EE6F10B92BBEFD1E365CA4030A8AFEEDDE0E PUSH1 0x1 PUSH1 0x0 SWAP1 SLOAD SWAP1 PUSH2 0x100 EXP SWAP1 DIV PUSH20 0xFFFFFFFFFFFFFFFFFFFFFFFFFFFFFFFFFFFFFFFF AND DUP3 PUSH1 0x7 SLOAD PUSH1 0x40 MLOAD PUSH2 0xA5A SWAP4 SWAP3 SWAP2 SWAP1 PUSH2 0x143D JUMP JUMPDEST PUSH1 0x40 MLOAD DUP1 SWAP2 SUB SWAP1 LOG1 JUMPDEST JUMPDEST JUMPDEST PUSH2 0xCDF JUMP JUMPDEST PUSH1 0x3 DUP1 DUP2 GT ISZERO PUSH2 0xA7D JUMPI PUSH2 0xA7C PUSH2 0x1750 JUMP JUMPDEST JUMPDEST DUP4 PUSH1 0x3 DUP2 GT ISZERO PUSH2 0xA90 JUMPI PUSH2 0xA8F PUSH2 0x1750 JUMP JUMPDEST JUMPDEST EQ ISZERO PUSH2 0xCDE JUMPI PUSH1 0x1 DUP3 EQ ISZERO PUSH2 0xB59 JUMPI PUSH1 0x1 PUSH1 0xA PUSH1 0x2 PUSH2 0x100 EXP DUP2 SLOAD DUP2 PUSH1 0xFF MUL NOT AND SWAP1 DUP4 PUSH1 0x2 DUP2 GT ISZERO PUSH2 0xAC5 JUMPI PUSH2 0xAC4 PUSH2 0x1750 JUMP JUMPDEST JUMPDEST MUL OR SWAP1 SSTORE POP PUSH1 0x3 PUSH1 0xA PUSH1 0x3 PUSH2 0x100 EXP DUP2 SLOAD DUP2 PUSH1 0xFF MUL NOT AND SWAP1 DUP4 PUSH1 0x3 DUP2 GT ISZERO PUSH2 0xAF0 JUMPI PUSH2 0xAEF PUSH2 0x1750 JUMP JUMPDEST JUMPDEST MUL OR SWAP1 SSTORE POP PUSH32 0x9AC774029E52550369F6C6F7394341CDE398D62C872A5F45913166B49AE5B0E3 PUSH1 0x1 PUSH1 0x0 SWAP1 SLOAD SWAP1 PUSH2 0x100 EXP SWAP1 DIV PUSH20 0xFFFFFFFFFFFFFFFFFFFFFFFFFFFFFFFFFFFFFFFF AND DUP3 PUSH1 0x8 SLOAD PUSH1 0x40 MLOAD PUSH2 0xB4C SWAP4 SWAP3 SWAP2 SWAP1 PUSH2 0x1315 JUMP JUMPDEST PUSH1 0x40 MLOAD DUP1 SWAP2 SUB SWAP1 LOG1 PUSH2 0xCDD JUMP JUMPDEST PUSH1 0x0 DUP3 EQ ISZERO PUSH2 0xC1C JUMPI PUSH1 0x2 PUSH1 0xA PUSH1 0x2 PUSH2 0x100 EXP DUP2 SLOAD DUP2 PUSH1 0xFF MUL NOT AND SWAP1 DUP4 PUSH1 0x2 DUP2 GT ISZERO PUSH2 0xB88 JUMPI PUSH2 0xB87 PUSH2 0x1750 JUMP JUMPDEST JUMPDEST MUL OR SWAP1 SSTORE POP PUSH1 0x3 PUSH1 0xA PUSH1 0x3 PUSH2 0x100 EXP DUP2 SLOAD DUP2 PUSH1 0xFF MUL NOT AND SWAP1 DUP4 PUSH1 0x3 DUP2 GT ISZERO PUSH2 0xBB3 JUMPI PUSH2 0xBB2 PUSH2 0x1750 JUMP JUMPDEST JUMPDEST MUL OR SWAP1 SSTORE POP PUSH32 0x9AC774029E52550369F6C6F7394341CDE398D62C872A5F45913166B49AE5B0E3 PUSH1 0x1 PUSH1 0x0 SWAP1 SLOAD SWAP1 PUSH2 0x100 EXP SWAP1 DIV PUSH20 0xFFFFFFFFFFFFFFFFFFFFFFFFFFFFFFFFFFFFFFFF AND DUP3 PUSH1 0x8 SLOAD PUSH1 0x40 MLOAD PUSH2 0xC0F SWAP4 SWAP3 SWAP2 SWAP1 PUSH2 0x1237 JUMP JUMPDEST PUSH1 0x40 MLOAD DUP1 SWAP2 SUB SWAP1 LOG1 PUSH2 0xCDC JUMP JUMPDEST PUSH1 0x2 DUP3 EQ ISZERO PUSH2 0xCDB JUMPI PUSH1 0x0 PUSH1 0xA PUSH1 0x2 PUSH2 0x100 EXP DUP2 SLOAD DUP2 PUSH1 0xFF MUL NOT AND SWAP1 DUP4 PUSH1 0x2 DUP2 GT ISZERO PUSH2 0xC4B JUMPI PUSH2 0xC4A PUSH2 0x1750 JUMP JUMPDEST JUMPDEST MUL OR SWAP1 SSTORE POP PUSH1 0x0 PUSH1 0xA PUSH1 0x3 PUSH2 0x100 EXP DUP2 SLOAD DUP2 PUSH1 0xFF MUL NOT AND SWAP1 DUP4 PUSH1 0x3 DUP2 GT ISZERO PUSH2 0xC76 JUMPI PUSH2 0xC75 PUSH2 0x1750 JUMP JUMPDEST JUMPDEST MUL OR SWAP1 SSTORE POP PUSH32 0x9AC774029E52550369F6C6F7394341CDE398D62C872A5F45913166B49AE5B0E3 PUSH1 0x1 PUSH1 0x0 SWAP1 SLOAD SWAP1 PUSH2 0x100 EXP SWAP1 DIV PUSH20 0xFFFFFFFFFFFFFFFFFFFFFFFFFFFFFFFFFFFFFFFF AND DUP3 PUSH1 0x8 SLOAD PUSH1 0x40 MLOAD PUSH2 0xCD2 SWAP4 SWAP3 SWAP2 SWAP1 PUSH2 0x1487 JUMP JUMPDEST PUSH1 0x40 MLOAD DUP1 SWAP2 SUB SWAP1 LOG1 JUMPDEST JUMPDEST JUMPDEST JUMPDEST JUMPDEST JUMPDEST POP POP POP JUMP JUMPDEST PUSH1 0x0 DUP1 SLOAD SWAP1 PUSH2 0x100 EXP SWAP1 DIV PUSH20 0xFFFFFFFFFFFFFFFFFFFFFFFFFFFFFFFFFFFFFFFF AND PUSH20 0xFFFFFFFFFFFFFFFFFFFFFFFFFFFFFFFFFFFFFFFF AND CALLER PUSH20 0xFFFFFFFFFFFFFFFFFFFFFFFFFFFFFFFFFFFFFFFF AND EQ PUSH2 0xD3D JUMPI PUSH1 0x0 DUP1 REVERT JUMPDEST DUP7 PUSH1 0x2 SWAP1 DUP1 MLOAD SWAP1 PUSH1 0x20 ADD SWAP1 PUSH2 0xD53 SWAP3 SWAP2 SWAP1 PUSH2 0xDBD JUMP JUMPDEST POP DUP6 PUSH1 0x3 SWAP1 DUP1 MLOAD SWAP1 PUSH1 0x20 ADD SWAP1 PUSH2 0xD6A SWAP3 SWAP2 SWAP1 PUSH2 0xDBD JUMP JUMPDEST POP DUP5 PUSH1 0x4 DUP2 SWAP1 SSTORE POP DUP4 PUSH1 0x5 DUP2 SWAP1 SSTORE POP DUP3 PUSH1 0x6 DUP2 SWAP1 SSTORE POP DUP2 PUSH1 0x7 DUP2 SWAP1 SSTORE POP DUP1 PUSH1 0x8 DUP2 SWAP1 SSTORE POP POP POP POP POP POP POP POP JUMP JUMPDEST PUSH1 0xA PUSH1 0x3 SWAP1 SLOAD SWAP1 PUSH2 0x100 EXP SWAP1 DIV PUSH1 0xFF AND DUP2 JUMP JUMPDEST PUSH1 0xA PUSH1 0x0 SWAP1 SLOAD SWAP1 PUSH2 0x100 EXP SWAP1 DIV PUSH1 0xFF AND DUP2 JUMP JUMPDEST DUP3 DUP1 SLOAD PUSH2 0xDC9 SWAP1 PUSH2 0x16ED JUMP JUMPDEST SWAP1 PUSH1 0x0 MSTORE PUSH1 0x20 PUSH1 0x0 KECCAK256 SWAP1 PUSH1 0x1F ADD PUSH1 0x20 SWAP1 DIV DUP2 ADD SWAP3 DUP3 PUSH2 0xDEB JUMPI PUSH1 0x0 DUP6 SSTORE PUSH2 0xE32 JUMP JUMPDEST DUP3 PUSH1 0x1F LT PUSH2 0xE04 JUMPI DUP1 MLOAD PUSH1 0xFF NOT AND DUP4 DUP1 ADD OR DUP6 SSTORE PUSH2 0xE32 JUMP JUMPDEST DUP3 DUP1 ADD PUSH1 0x1 ADD DUP6 SSTORE DUP3 ISZERO PUSH2 0xE32 JUMPI SWAP2 DUP3 ADD JUMPDEST DUP3 DUP2 GT ISZERO PUSH2 0xE31 JUMPI DUP3 MLOAD DUP3 SSTORE SWAP2 PUSH1 0x20 ADD SWAP2 SWAP1 PUSH1 0x1 ADD SWAP1 PUSH2 0xE16 JUMP JUMPDEST JUMPDEST POP SWAP1 POP PUSH2 0xE3F SWAP2 SWAP1 PUSH2 0xE43 JUMP JUMPDEST POP SWAP1 JUMP JUMPDEST JUMPDEST DUP1 DUP3 GT ISZERO PUSH2 0xE5C JUMPI PUSH1 0x0 DUP2 PUSH1 0x0 SWAP1 SSTORE POP PUSH1 0x1 ADD PUSH2 0xE44 JUMP JUMPDEST POP SWAP1 JUMP JUMPDEST PUSH1 0x0 PUSH2 0xE73 PUSH2 0xE6E DUP5 PUSH2 0x1584 JUMP JUMPDEST PUSH2 0x155F JUMP JUMPDEST SWAP1 POP DUP3 DUP2 MSTORE PUSH1 0x20 DUP2 ADD DUP5 DUP5 DUP5 ADD GT ISZERO PUSH2 0xE8F JUMPI PUSH2 0xE8E PUSH2 0x17E2 JUMP JUMPDEST JUMPDEST PUSH2 0xE9A DUP5 DUP3 DUP6 PUSH2 0x16AB JUMP JUMPDEST POP SWAP4 SWAP3 POP POP POP JUMP JUMPDEST PUSH1 0x0 DUP2 CALLDATALOAD SWAP1 POP PUSH2 0xEB1 DUP2 PUSH2 0x1A5B JUMP JUMPDEST SWAP3 SWAP2 POP POP JUMP JUMPDEST PUSH1 0x0 DUP2 CALLDATALOAD SWAP1 POP PUSH2 0xEC6 DUP2 PUSH2 0x1A6B JUMP JUMPDEST SWAP3 SWAP2 POP POP JUMP JUMPDEST PUSH1 0x0 DUP3 PUSH1 0x1F DUP4 ADD SLT PUSH2 0xEE1 JUMPI PUSH2 0xEE0 PUSH2 0x17DD JUMP JUMPDEST JUMPDEST DUP2 CALLDATALOAD PUSH2 0xEF1 DUP5 DUP3 PUSH1 0x20 DUP7 ADD PUSH2 0xE60 JUMP JUMPDEST SWAP2 POP POP SWAP3 SWAP2 POP POP JUMP JUMPDEST PUSH1 0x0 DUP2 CALLDATALOAD SWAP1 POP PUSH2 0xF09 DUP2 PUSH2 0x1A82 JUMP JUMPDEST SWAP3 SWAP2 POP POP JUMP JUMPDEST PUSH1 0x0 DUP1 PUSH1 0x0 PUSH1 0x60 DUP5 DUP7 SUB SLT ISZERO PUSH2 0xF28 JUMPI PUSH2 0xF27 PUSH2 0x17EC JUMP JUMPDEST JUMPDEST PUSH1 0x0 PUSH2 0xF36 DUP7 DUP3 DUP8 ADD PUSH2 0xEA2 JUMP JUMPDEST SWAP4 POP POP PUSH1 0x20 PUSH2 0xF47 DUP7 DUP3 DUP8 ADD PUSH2 0xEB7 JUMP JUMPDEST SWAP3 POP POP PUSH1 0x40 PUSH2 0xF58 DUP7 DUP3 DUP8 ADD PUSH2 0xEFA JUMP JUMPDEST SWAP2 POP POP SWAP3 POP SWAP3 POP SWAP3 JUMP JUMPDEST PUSH1 0x0 DUP1 PUSH1 0x0 DUP1 PUSH1 0x0 DUP1 PUSH1 0x0 PUSH1 0xE0 DUP9 DUP11 SUB SLT ISZERO PUSH2 0xF81 JUMPI PUSH2 0xF80 PUSH2 0x17EC JUMP JUMPDEST JUMPDEST PUSH1 0x0 DUP9 ADD CALLDATALOAD PUSH8 0xFFFFFFFFFFFFFFFF DUP2 GT ISZERO PUSH2 0xF9F JUMPI PUSH2 0xF9E PUSH2 0x17E7 JUMP JUMPDEST JUMPDEST PUSH2 0xFAB DUP11 DUP3 DUP12 ADD PUSH2 0xECC JUMP JUMPDEST SWAP8 POP POP PUSH1 0x20 DUP9 ADD CALLDATALOAD PUSH8 0xFFFFFFFFFFFFFFFF DUP2 GT ISZERO PUSH2 0xFCC JUMPI PUSH2 0xFCB PUSH2 0x17E7 JUMP JUMPDEST JUMPDEST PUSH2 0xFD8 DUP11 DUP3 DUP12 ADD PUSH2 0xECC JUMP JUMPDEST SWAP7 POP POP PUSH1 0x40 PUSH2 0xFE9 DUP11 DUP3 DUP12 ADD PUSH2 0xEFA JUMP JUMPDEST SWAP6 POP POP PUSH1 0x60 PUSH2 0xFFA DUP11 DUP3 DUP12 ADD PUSH2 0xEFA JUMP JUMPDEST SWAP5 POP POP PUSH1 0x80 PUSH2 0x100B DUP11 DUP3 DUP12 ADD PUSH2 0xEFA JUMP JUMPDEST SWAP4 POP POP PUSH1 0xA0 PUSH2 0x101C DUP11 DUP3 DUP12 ADD PUSH2 0xEFA JUMP JUMPDEST SWAP3 POP POP PUSH1 0xC0 PUSH2 0x102D DUP11 DUP3 DUP12 ADD PUSH2 0xEFA JUMP JUMPDEST SWAP2 POP POP SWAP3 SWAP6 SWAP9 SWAP2 SWAP5 SWAP8 POP SWAP3 SWAP6 POP JUMP JUMPDEST PUSH1 0x0 PUSH1 0x20 DUP3 DUP5 SUB SLT ISZERO PUSH2 0x1052 JUMPI PUSH2 0x1051 PUSH2 0x17EC JUMP JUMPDEST JUMPDEST PUSH1 0x0 PUSH2 0x1060 DUP5 DUP3 DUP6 ADD PUSH2 0xEFA JUMP JUMPDEST SWAP2 POP POP SWAP3 SWAP2 POP POP JUMP JUMPDEST PUSH2 0x1072 DUP2 PUSH2 0x15D1 JUMP JUMPDEST DUP3 MSTORE POP POP JUMP JUMPDEST PUSH2 0x1081 DUP2 PUSH2 0x1663 JUMP JUMPDEST DUP3 MSTORE POP POP JUMP JUMPDEST PUSH2 0x1090 DUP2 PUSH2 0x1675 JUMP JUMPDEST DUP3 MSTORE POP POP JUMP JUMPDEST PUSH2 0x109F DUP2 PUSH2 0x1687 JUMP JUMPDEST DUP3 MSTORE POP POP JUMP JUMPDEST PUSH2 0x10AE DUP2 PUSH2 0x1699 JUMP JUMPDEST DUP3 MSTORE POP POP JUMP JUMPDEST PUSH1 0x0 PUSH2 0x10BF DUP3 PUSH2 0x15B5 JUMP JUMPDEST PUSH2 0x10C9 DUP2 DUP6 PUSH2 0x15C0 JUMP JUMPDEST SWAP4 POP PUSH2 0x10D9 DUP2 DUP6 PUSH1 0x20 DUP7 ADD PUSH2 0x16BA JUMP JUMPDEST PUSH2 0x10E2 DUP2 PUSH2 0x17F1 JUMP JUMPDEST DUP5 ADD SWAP2 POP POP SWAP3 SWAP2 POP POP JUMP JUMPDEST PUSH1 0x0 PUSH2 0x10FA PUSH1 0x25 DUP4 PUSH2 0x15C0 JUMP JUMPDEST SWAP2 POP PUSH2 0x1105 DUP3 PUSH2 0x1802 JUMP JUMPDEST PUSH1 0x40 DUP3 ADD SWAP1 POP SWAP2 SWAP1 POP JUMP JUMPDEST PUSH1 0x0 PUSH2 0x111D PUSH1 0x16 DUP4 PUSH2 0x15C0 JUMP JUMPDEST SWAP2 POP PUSH2 0x1128 DUP3 PUSH2 0x1851 JUMP JUMPDEST PUSH1 0x20 DUP3 ADD SWAP1 POP SWAP2 SWAP1 POP JUMP JUMPDEST PUSH1 0x0 PUSH2 0x1140 PUSH1 0x22 DUP4 PUSH2 0x15C0 JUMP JUMPDEST SWAP2 POP PUSH2 0x114B DUP3 PUSH2 0x187A JUMP JUMPDEST PUSH1 0x40 DUP3 ADD SWAP1 POP SWAP2 SWAP1 POP JUMP JUMPDEST PUSH1 0x0 PUSH2 0x1163 PUSH1 0x24 DUP4 PUSH2 0x15C0 JUMP JUMPDEST SWAP2 POP PUSH2 0x116E DUP3 PUSH2 0x18C9 JUMP JUMPDEST PUSH1 0x40 DUP3 ADD SWAP1 POP SWAP2 SWAP1 POP JUMP JUMPDEST PUSH1 0x0 PUSH2 0x1186 PUSH1 0x1F DUP4 PUSH2 0x15C0 JUMP JUMPDEST SWAP2 POP PUSH2 0x1191 DUP3 PUSH2 0x1918 JUMP JUMPDEST PUSH1 0x20 DUP3 ADD SWAP1 POP SWAP2 SWAP1 POP JUMP JUMPDEST PUSH1 0x0 PUSH2 0x11A9 PUSH1 0x20 DUP4 PUSH2 0x15C0 JUMP JUMPDEST SWAP2 POP PUSH2 0x11B4 DUP3 PUSH2 0x1941 JUMP JUMPDEST PUSH1 0x20 DUP3 ADD SWAP1 POP SWAP2 SWAP1 POP JUMP JUMPDEST PUSH1 0x0 PUSH2 0x11CC PUSH1 0x21 DUP4 PUSH2 0x15C0 JUMP JUMPDEST SWAP2 POP PUSH2 0x11D7 DUP3 PUSH2 0x196A JUMP JUMPDEST PUSH1 0x40 DUP3 ADD SWAP1 POP SWAP2 SWAP1 POP JUMP JUMPDEST PUSH1 0x0 PUSH2 0x11EF PUSH1 0x14 DUP4 PUSH2 0x15C0 JUMP JUMPDEST SWAP2 POP PUSH2 0x11FA DUP3 PUSH2 0x19B9 JUMP JUMPDEST PUSH1 0x20 DUP3 ADD SWAP1 POP SWAP2 SWAP1 POP JUMP JUMPDEST PUSH1 0x0 PUSH2 0x1212 PUSH1 0x19 DUP4 PUSH2 0x15C0 JUMP JUMPDEST SWAP2 POP PUSH2 0x121D DUP3 PUSH2 0x19E2 JUMP JUMPDEST PUSH1 0x20 DUP3 ADD SWAP1 POP SWAP2 SWAP1 POP JUMP JUMPDEST PUSH2 0x1231 DUP2 PUSH2 0x1659 JUMP JUMPDEST DUP3 MSTORE POP POP JUMP JUMPDEST PUSH1 0x0 PUSH1 0x80 DUP3 ADD SWAP1 POP PUSH2 0x124C PUSH1 0x0 DUP4 ADD DUP7 PUSH2 0x1069 JUMP JUMPDEST DUP2 DUP2 SUB PUSH1 0x20 DUP4 ADD MSTORE PUSH2 0x125D DUP2 PUSH2 0x10ED JUMP JUMPDEST SWAP1 POP PUSH2 0x126C PUSH1 0x40 DUP4 ADD DUP6 PUSH2 0x1228 JUMP JUMPDEST PUSH2 0x1279 PUSH1 0x60 DUP4 ADD DUP5 PUSH2 0x1228 JUMP JUMPDEST SWAP5 SWAP4 POP POP POP POP JUMP JUMPDEST PUSH1 0x0 PUSH1 0x80 DUP3 ADD SWAP1 POP PUSH2 0x1296 PUSH1 0x0 DUP4 ADD DUP7 PUSH2 0x1069 JUMP JUMPDEST DUP2 DUP2 SUB PUSH1 0x20 DUP4 ADD MSTORE PUSH2 0x12A7 DUP2 PUSH2 0x1110 JUMP JUMPDEST SWAP1 POP PUSH2 0x12B6 PUSH1 0x40 DUP4 ADD DUP6 PUSH2 0x1228 JUMP JUMPDEST PUSH2 0x12C3 PUSH1 0x60 DUP4 ADD DUP5 PUSH2 0x1228 JUMP JUMPDEST SWAP5 SWAP4 POP POP POP POP JUMP JUMPDEST PUSH1 0x0 PUSH1 0x80 DUP3 ADD SWAP1 POP PUSH2 0x12E0 PUSH1 0x0 DUP4 ADD DUP7 PUSH2 0x1069 JUMP JUMPDEST DUP2 DUP2 SUB PUSH1 0x20 DUP4 ADD MSTORE PUSH2 0x12F1 DUP2 PUSH2 0x1133 JUMP JUMPDEST SWAP1 POP PUSH2 0x1300 PUSH1 0x40 DUP4 ADD DUP6 PUSH2 0x1228 JUMP JUMPDEST PUSH2 0x130D PUSH1 0x60 DUP4 ADD DUP5 PUSH2 0x1228 JUMP JUMPDEST SWAP5 SWAP4 POP POP POP POP JUMP JUMPDEST PUSH1 0x0 PUSH1 0x80 DUP3 ADD SWAP1 POP PUSH2 0x132A PUSH1 0x0 DUP4 ADD DUP7 PUSH2 0x1069 JUMP JUMPDEST DUP2 DUP2 SUB PUSH1 0x20 DUP4 ADD MSTORE PUSH2 0x133B DUP2 PUSH2 0x1156 JUMP JUMPDEST SWAP1 POP PUSH2 0x134A PUSH1 0x40 DUP4 ADD DUP6 PUSH2 0x1228 JUMP JUMPDEST PUSH2 0x1357 PUSH1 0x60 DUP4 ADD DUP5 PUSH2 0x1228 JUMP JUMPDEST SWAP5 SWAP4 POP POP POP POP JUMP JUMPDEST PUSH1 0x0 PUSH1 0x80 DUP3 ADD SWAP1 POP PUSH2 0x1374 PUSH1 0x0 DUP4 ADD DUP7 PUSH2 0x1069 JUMP JUMPDEST DUP2 DUP2 SUB PUSH1 0x20 DUP4 ADD MSTORE PUSH2 0x1385 DUP2 PUSH2 0x1179 JUMP JUMPDEST SWAP1 POP PUSH2 0x1394 PUSH1 0x40 DUP4 ADD DUP6 PUSH2 0x1228 JUMP JUMPDEST PUSH2 0x13A1 PUSH1 0x60 DUP4 ADD DUP5 PUSH2 0x1228 JUMP JUMPDEST SWAP5 SWAP4 POP POP POP POP JUMP JUMPDEST PUSH1 0x0 PUSH1 0x80 DUP3 ADD SWAP1 POP PUSH2 0x13BE PUSH1 0x0 DUP4 ADD DUP7 PUSH2 0x1069 JUMP JUMPDEST DUP2 DUP2 SUB PUSH1 0x20 DUP4 ADD MSTORE PUSH2 0x13CF DUP2 PUSH2 0x119C JUMP JUMPDEST SWAP1 POP PUSH2 0x13DE PUSH1 0x40 DUP4 ADD DUP6 PUSH2 0x1228 JUMP JUMPDEST PUSH2 0x13EB PUSH1 0x60 DUP4 ADD DUP5 PUSH2 0x1228 JUMP JUMPDEST SWAP5 SWAP4 POP POP POP POP JUMP JUMPDEST PUSH1 0x0 PUSH1 0x80 DUP3 ADD SWAP1 POP PUSH2 0x1408 PUSH1 0x0 DUP4 ADD DUP7 PUSH2 0x1069 JUMP JUMPDEST DUP2 DUP2 SUB PUSH1 0x20 DUP4 ADD MSTORE PUSH2 0x1419 DUP2 PUSH2 0x11BF JUMP JUMPDEST SWAP1 POP PUSH2 0x1428 PUSH1 0x40 DUP4 ADD DUP6 PUSH2 0x1228 JUMP JUMPDEST PUSH2 0x1435 PUSH1 0x60 DUP4 ADD DUP5 PUSH2 0x1228 JUMP JUMPDEST SWAP5 SWAP4 POP POP POP POP JUMP JUMPDEST PUSH1 0x0 PUSH1 0x80 DUP3 ADD SWAP1 POP PUSH2 0x1452 PUSH1 0x0 DUP4 ADD DUP7 PUSH2 0x1069 JUMP JUMPDEST DUP2 DUP2 SUB PUSH1 0x20 DUP4 ADD MSTORE PUSH2 0x1463 DUP2 PUSH2 0x11E2 JUMP JUMPDEST SWAP1 POP PUSH2 0x1472 PUSH1 0x40 DUP4 ADD DUP6 PUSH2 0x1228 JUMP JUMPDEST PUSH2 0x147F PUSH1 0x60 DUP4 ADD DUP5 PUSH2 0x1228 JUMP JUMPDEST SWAP5 SWAP4 POP POP POP POP JUMP JUMPDEST PUSH1 0x0 PUSH1 0x80 DUP3 ADD SWAP1 POP PUSH2 0x149C PUSH1 0x0 DUP4 ADD DUP7 PUSH2 0x1069 JUMP JUMPDEST DUP2 DUP2 SUB PUSH1 0x20 DUP4 ADD MSTORE PUSH2 0x14AD DUP2 PUSH2 0x1205 JUMP JUMPDEST SWAP1 POP PUSH2 0x14BC PUSH1 0x40 DUP4 ADD DUP6 PUSH2 0x1228 JUMP JUMPDEST PUSH2 0x14C9 PUSH1 0x60 DUP4 ADD DUP5 PUSH2 0x1228 JUMP JUMPDEST SWAP5 SWAP4 POP POP POP POP JUMP JUMPDEST PUSH1 0x0 PUSH1 0x20 DUP3 ADD SWAP1 POP PUSH2 0x14E6 PUSH1 0x0 DUP4 ADD DUP5 PUSH2 0x1078 JUMP JUMPDEST SWAP3 SWAP2 POP POP JUMP JUMPDEST PUSH1 0x0 PUSH1 0x20 DUP3 ADD SWAP1 POP PUSH2 0x1501 PUSH1 0x0 DUP4 ADD DUP5 PUSH2 0x1087 JUMP JUMPDEST SWAP3 SWAP2 POP POP JUMP JUMPDEST PUSH1 0x0 PUSH1 0x20 DUP3 ADD SWAP1 POP PUSH2 0x151C PUSH1 0x0 DUP4 ADD DUP5 PUSH2 0x1096 JUMP JUMPDEST SWAP3 SWAP2 POP POP JUMP JUMPDEST PUSH1 0x0 PUSH1 0x20 DUP3 ADD SWAP1 POP PUSH2 0x1537 PUSH1 0x0 DUP4 ADD DUP5 PUSH2 0x10A5 JUMP JUMPDEST SWAP3 SWAP2 POP POP JUMP JUMPDEST PUSH1 0x0 PUSH1 0x20 DUP3 ADD SWAP1 POP DUP2 DUP2 SUB PUSH1 0x0 DUP4 ADD MSTORE PUSH2 0x1557 DUP2 DUP5 PUSH2 0x10B4 JUMP JUMPDEST SWAP1 POP SWAP3 SWAP2 POP POP JUMP JUMPDEST PUSH1 0x0 PUSH2 0x1569 PUSH2 0x157A JUMP JUMPDEST SWAP1 POP PUSH2 0x1575 DUP3 DUP3 PUSH2 0x171F JUMP JUMPDEST SWAP2 SWAP1 POP JUMP JUMPDEST PUSH1 0x0 PUSH1 0x40 MLOAD SWAP1 POP SWAP1 JUMP JUMPDEST PUSH1 0x0 PUSH8 0xFFFFFFFFFFFFFFFF DUP3 GT ISZERO PUSH2 0x159F JUMPI PUSH2 0x159E PUSH2 0x17AE JUMP JUMPDEST JUMPDEST PUSH2 0x15A8 DUP3 PUSH2 0x17F1 JUMP JUMPDEST SWAP1 POP PUSH1 0x20 DUP2 ADD SWAP1 POP SWAP2 SWAP1 POP JUMP JUMPDEST PUSH1 0x0 DUP2 MLOAD SWAP1 POP SWAP2 SWAP1 POP JUMP JUMPDEST PUSH1 0x0 DUP3 DUP3 MSTORE PUSH1 0x20 DUP3 ADD SWAP1 POP SWAP3 SWAP2 POP POP JUMP JUMPDEST PUSH1 0x0 PUSH2 0x15DC DUP3 PUSH2 0x1639 JUMP JUMPDEST SWAP1 POP SWAP2 SWAP1 POP JUMP JUMPDEST PUSH1 0x0 DUP2 SWAP1 POP PUSH2 0x15F1 DUP3 PUSH2 0x1A0B JUMP JUMPDEST SWAP2 SWAP1 POP JUMP JUMPDEST PUSH1 0x0 DUP2 SWAP1 POP PUSH2 0x1604 DUP3 PUSH2 0x1A1F JUMP JUMPDEST SWAP2 SWAP1 POP JUMP JUMPDEST PUSH1 0x0 DUP2 SWAP1 POP PUSH2 0x1617 DUP3 PUSH2 0x1A33 JUMP JUMPDEST SWAP2 SWAP1 POP JUMP JUMPDEST PUSH1 0x0 DUP2 SWAP1 POP PUSH2 0x162A DUP3 PUSH2 0x1A47 JUMP JUMPDEST SWAP2 SWAP1 POP JUMP JUMPDEST PUSH1 0x0 DUP2 SWAP1 POP SWAP2 SWAP1 POP JUMP JUMPDEST PUSH1 0x0 PUSH20 0xFFFFFFFFFFFFFFFFFFFFFFFFFFFFFFFFFFFFFFFF DUP3 AND SWAP1 POP SWAP2 SWAP1 POP JUMP JUMPDEST PUSH1 0x0 DUP2 SWAP1 POP SWAP2 SWAP1 POP JUMP JUMPDEST PUSH1 0x0 PUSH2 0x166E DUP3 PUSH2 0x15E3 JUMP JUMPDEST SWAP1 POP SWAP2 SWAP1 POP JUMP JUMPDEST PUSH1 0x0 PUSH2 0x1680 DUP3 PUSH2 0x15F6 JUMP JUMPDEST SWAP1 POP SWAP2 SWAP1 POP JUMP JUMPDEST PUSH1 0x0 PUSH2 0x1692 DUP3 PUSH2 0x1609 JUMP JUMPDEST SWAP1 POP SWAP2 SWAP1 POP JUMP JUMPDEST PUSH1 0x0 PUSH2 0x16A4 DUP3 PUSH2 0x161C JUMP JUMPDEST SWAP1 POP SWAP2 SWAP1 POP JUMP JUMPDEST DUP3 DUP2 DUP4 CALLDATACOPY PUSH1 0x0 DUP4 DUP4 ADD MSTORE POP POP POP JUMP JUMPDEST PUSH1 0x0 JUMPDEST DUP4 DUP2 LT ISZERO PUSH2 0x16D8 JUMPI DUP1 DUP3 ADD MLOAD DUP2 DUP5 ADD MSTORE PUSH1 0x20 DUP2 ADD SWAP1 POP PUSH2 0x16BD JUMP JUMPDEST DUP4 DUP2 GT ISZERO PUSH2 0x16E7 JUMPI PUSH1 0x0 DUP5 DUP5 ADD MSTORE JUMPDEST POP POP POP POP JUMP JUMPDEST PUSH1 0x0 PUSH1 0x2 DUP3 DIV SWAP1 POP PUSH1 0x1 DUP3 AND DUP1 PUSH2 0x1705 JUMPI PUSH1 0x7F DUP3 AND SWAP2 POP JUMPDEST PUSH1 0x20 DUP3 LT DUP2 EQ ISZERO PUSH2 0x1719 JUMPI PUSH2 0x1718 PUSH2 0x177F JUMP JUMPDEST JUMPDEST POP SWAP2 SWAP1 POP JUMP JUMPDEST PUSH2 0x1728 DUP3 PUSH2 0x17F1 JUMP JUMPDEST DUP2 ADD DUP2 DUP2 LT PUSH8 0xFFFFFFFFFFFFFFFF DUP3 GT OR ISZERO PUSH2 0x1747 JUMPI PUSH2 0x1746 PUSH2 0x17AE JUMP JUMPDEST JUMPDEST DUP1 PUSH1 0x40 MSTORE POP POP POP JUMP JUMPDEST PUSH32 0x4E487B7100000000000000000000000000000000000000000000000000000000 PUSH1 0x0 MSTORE PUSH1 0x21 PUSH1 0x4 MSTORE PUSH1 0x24 PUSH1 0x0 REVERT JUMPDEST PUSH32 0x4E487B7100000000000000000000000000000000000000000000000000000000 PUSH1 0x0 MSTORE PUSH1 0x22 PUSH1 0x4 MSTORE PUSH1 0x24 PUSH1 0x0 REVERT JUMPDEST PUSH32 0x4E487B7100000000000000000000000000000000000000000000000000000000 PUSH1 0x0 MSTORE PUSH1 0x41 PUSH1 0x4 MSTORE PUSH1 0x24 PUSH1 0x0 REVERT JUMPDEST PUSH1 0x0 DUP1 REVERT JUMPDEST PUSH1 0x0 DUP1 REVERT JUMPDEST PUSH1 0x0 DUP1 REVERT JUMPDEST PUSH1 0x0 DUP1 REVERT JUMPDEST PUSH1 0x0 PUSH1 0x1F NOT PUSH1 0x1F DUP4 ADD AND SWAP1 POP SWAP2 SWAP1 POP JUMP JUMPDEST PUSH32 0x4C69676874206578706F737572652069732062656C6F77207468652074687265 PUSH1 0x0 DUP3 ADD MSTORE PUSH32 0x73686F6C64000000000000000000000000000000000000000000000000000000 PUSH1 0x20 DUP3 ADD MSTORE POP JUMP JUMPDEST PUSH32 0x54656D7061726174757265206973204F7074696D756D00000000000000000000 PUSH1 0x0 DUP3 ADD MSTORE POP JUMP JUMPDEST PUSH32 0x54656D70617261747572652069732062656C6F7720746865207468726573686F PUSH1 0x0 DUP3 ADD MSTORE PUSH32 0x6C64000000000000000000000000000000000000000000000000000000000000 PUSH1 0x20 DUP3 ADD MSTORE POP JUMP JUMPDEST PUSH32 0x4C69676874206578706F73757265206973206F76657220746865207468726573 PUSH1 0x0 DUP3 ADD MSTORE PUSH32 0x686F6C6400000000000000000000000000000000000000000000000000000000 PUSH1 0x20 DUP3 ADD MSTORE POP JUMP JUMPDEST PUSH32 0x48756D6D6964697479206973206F76657220746865207468726573686F6C6400 PUSH1 0x0 DUP3 ADD MSTORE POP JUMP JUMPDEST PUSH32 0x48756D6D69646974792069732062656C6F7720746865207468726573686F6C64 PUSH1 0x0 DUP3 ADD MSTORE POP JUMP JUMPDEST PUSH32 0x54656D7061726174757265206973206F76657220746865207468726573686F6C PUSH1 0x0 DUP3 ADD MSTORE PUSH32 0x6400000000000000000000000000000000000000000000000000000000000000 PUSH1 0x20 DUP3 ADD MSTORE POP JUMP JUMPDEST PUSH32 0x48756D6D6964697479206973204F7074696D756D000000000000000000000000 PUSH1 0x0 DUP3 ADD MSTORE POP JUMP JUMPDEST PUSH32 0x4C69676874206578706F73757265206973206F7074696D756D00000000000000 PUSH1 0x0 DUP3 ADD MSTORE POP JUMP JUMPDEST PUSH1 0x3 DUP2 LT PUSH2 0x1A1C JUMPI PUSH2 0x1A1B PUSH2 0x1750 JUMP JUMPDEST JUMPDEST POP JUMP JUMPDEST PUSH1 0x3 DUP2 LT PUSH2 0x1A30 JUMPI PUSH2 0x1A2F PUSH2 0x1750 JUMP JUMPDEST JUMPDEST POP JUMP JUMPDEST PUSH1 0x3 DUP2 LT PUSH2 0x1A44 JUMPI PUSH2 0x1A43 PUSH2 0x1750 JUMP JUMPDEST JUMPDEST POP JUMP JUMPDEST PUSH1 0x4 DUP2 LT PUSH2 0x1A58 JUMPI PUSH2 0x1A57 PUSH2 0x1750 JUMP JUMPDEST JUMPDEST POP JUMP JUMPDEST PUSH1 0x4 DUP2 LT PUSH2 0x1A68 JUMPI PUSH1 0x0 DUP1 REVERT JUMPDEST POP JUMP JUMPDEST PUSH2 0x1A74 DUP2 PUSH2 0x162F JUMP JUMPDEST DUP2 EQ PUSH2 0x1A7F JUMPI PUSH1 0x0 DUP1 REVERT JUMPDEST POP JUMP JUMPDEST PUSH2 0x1A8B DUP2 PUSH2 0x1659 JUMP JUMPDEST DUP2 EQ PUSH2 0x1A96 JUMPI PUSH1 0x0 DUP1 REVERT JUMPDEST POP JUMP INVALID NUMBER PUSH22 0x7272656E742068756D6D6964697479206973206F7665 PUSH19 0x20746865207468726573686F6C644375727265 PUSH15 0x742074656D70657261747572652069 PUSH20 0x2062656C6F7720746865207468726573686F6C64 NUMBER PUSH22 0x7272656E742074656D7065726174757265206973206F PUSH23 0x657220746865207468726573686F6C6443757272656E74 KECCAK256 PUSH13 0x69676874206578706F73757265 KECCAK256 PUSH10 0x73206F7074696D756D43 PUSH22 0x7272656E742068756D6D69646974792069732062656C PUSH16 0x7720746865207468726573686F6C6443 PUSH22 0x7272656E74206C69676874206578706F737572652069 PUSH20 0x206F76657220746865207468726573686F6C6443 PUSH22 0x7272656E74206C69676874206578706F737572652069 PUSH20 0x2062656C6F7720746865207468726573686F6C64 LOG2 PUSH5 0x6970667358 0x22 SLT KECCAK256 0x2F 0xFB RETURNDATASIZE 0xAA PUSH19 0x65AF304C45AAA2050BF414B854BD54604C2F86 0xF8 0xEE MLOAD 0xD 0x29 MSIZE PUSH30 0xE464736F6C63430008060033000000000000000000000000000000000000 "
		},
		"gasEstimates": {
			"creation": {
				"codeDepositCost": "1429400",
				"executionCost": "169449",
				"totalCost": "1598849"
			},
			"external": {
				"addSeed(string,string,uint256,uint256,uint256,uint256,uint256)": "infinite",
				"humCOn()": "2610",
				"hummiditySelfCheck(uint256)": "infinite",
				"lightCOn()": "2655",
				"lightExpoSelfCheck(uint256)": "infinite",
				"tempCOn()": "2648",
				"temperatureSelfCheck(uint256)": "infinite",
				"violationTrigger(uint8,int256,uint256)": "infinite",
				"violationType()": "2676"
			}
		},
		"methodIdentifiers": {
			"addSeed(string,string,uint256,uint256,uint256,uint256,uint256)": "a61cf5df",
			"humCOn()": "78a655c5",
			"hummiditySelfCheck(uint256)": "28e22653",
			"lightCOn()": "36f9259a",
			"lightExpoSelfCheck(uint256)": "20cb958e",
			"tempCOn()": "f15d4202",
			"temperatureSelfCheck(uint256)": "49b3f2dc",
			"violationTrigger(uint8,int256,uint256)": "97b62288",
			"violationType()": "efd75482"
		}
	},
	"abi": [
		{
			"inputs": [],
			"stateMutability": "nonpayable",
			"type": "constructor"
		},
		{
			"anonymous": false,
			"inputs": [
				{
					"indexed": false,
					"internalType": "address",
					"name": "ad",
					"type": "address"
				},
				{
					"indexed": false,
					"internalType": "string",
					"name": "msg",
					"type": "string"
				},
				{
					"indexed": false,
					"internalType": "uint256",
					"name": "actualHum",
					"type": "uint256"
				},
				{
					"indexed": false,
					"internalType": "uint256",
					"name": "optimumHum",
					"type": "uint256"
				}
			],
			"name": "HummidityViolation",
			"type": "event"
		},
		{
			"anonymous": false,
			"inputs": [
				{
					"indexed": false,
					"internalType": "address",
					"name": "ad",
					"type": "address"
				},
				{
					"indexed": false,
					"internalType": "string",
					"name": "msg",
					"type": "string"
				},
				{
					"indexed": false,
					"internalType": "uint256",
					"name": "actualLightExpo",
					"type": "uint256"
				},
				{
					"indexed": false,
					"internalType": "uint256",
					"name": "optimumLightExpo",
					"type": "uint256"
				}
			],
			"name": "LightExposureViolation",
			"type": "event"
		},
		{
			"anonymous": false,
			"inputs": [
				{
					"indexed": false,
					"internalType": "address",
					"name": "ad",
					"type": "address"
				},
				{
					"indexed": false,
					"internalType": "string",
					"name": "msg",
					"type": "string"
				},
				{
					"indexed": false,
					"internalType": "uint256",
					"name": "actualTemp",
					"type": "uint256"
				},
				{
					"indexed": false,
					"internalType": "uint256",
					"name": "optimumTemp",
					"type": "uint256"
				}
			],
			"name": "TemperatureViolation",
			"type": "event"
		},
		{
			"anonymous": false,
			"inputs": [
				{
					"indexed": false,
					"internalType": "address",
					"name": "ad",
					"type": "address"
				},
				{
					"indexed": false,
					"internalType": "string",
					"name": "msg",
					"type": "string"
				}
			],
			"name": "seedStored",
			"type": "event"
		},
		{
			"inputs": [
				{
					"internalType": "string",
					"name": "name",
					"type": "string"
				},
				{
					"internalType": "string",
					"name": "bat_id",
					"type": "string"
				},
				{
					"internalType": "uint256",
					"name": "quant",
					"type": "uint256"
				},
				{
					"internalType": "uint256",
					"name": "price",
					"type": "uint256"
				},
				{
					"internalType": "uint256",
					"name": "optTem",
					"type": "uint256"
				},
				{
					"internalType": "uint256",
					"name": "optHum",
					"type": "uint256"
				},
				{
					"internalType": "uint256",
					"name": "optLitEx",
					"type": "uint256"
				}
			],
			"name": "addSeed",
			"outputs": [],
			"stateMutability": "nonpayable",
			"type": "function"
		},
		{
			"inputs": [],
			"name": "humCOn",
			"outputs": [
				{
					"internalType": "enum Storage.HumCondition",
					"name": "",
					"type": "uint8"
				}
			],
			"stateMutability": "view",
			"type": "function"
		},
		{
			"inputs": [
				{
					"internalType": "uint256",
					"name": "value",
					"type": "uint256"
				}
			],
			"name": "hummiditySelfCheck",
			"outputs": [
				{
					"internalType": "string",
					"name": "",
					"type": "string"
				}
			],
			"stateMutability": "nonpayable",
			"type": "function"
		},
		{
			"inputs": [],
			"name": "lightCOn",
			"outputs": [
				{
					"internalType": "enum Storage.LightExpoCondition",
					"name": "",
					"type": "uint8"
				}
			],
			"stateMutability": "view",
			"type": "function"
		},
		{
			"inputs": [
				{
					"internalType": "uint256",
					"name": "value",
					"type": "uint256"
				}
			],
			"name": "lightExpoSelfCheck",
			"outputs": [
				{
					"internalType": "string",
					"name": "",
					"type": "string"
				}
			],
			"stateMutability": "nonpayable",
			"type": "function"
		},
		{
			"inputs": [],
			"name": "tempCOn",
			"outputs": [
				{
					"internalType": "enum Storage.TempCondition",
					"name": "",
					"type": "uint8"
				}
			],
			"stateMutability": "view",
			"type": "function"
		},
		{
			"inputs": [
				{
					"internalType": "uint256",
					"name": "value",
					"type": "uint256"
				}
			],
			"name": "temperatureSelfCheck",
			"outputs": [
				{
					"internalType": "string",
					"name": "",
					"type": "string"
				}
			],
			"stateMutability": "nonpayable",
			"type": "function"
		},
		{
			"inputs": [
				{
					"internalType": "enum Storage.ViolationType",
					"name": "vio",
					"type": "uint8"
				},
				{
					"internalType": "int256",
					"name": "category",
					"type": "int256"
				},
				{
					"internalType": "uint256",
					"name": "value",
					"type": "uint256"
				}
			],
			"name": "violationTrigger",
			"outputs": [],
			"stateMutability": "nonpayable",
			"type": "function"
		},
		{
			"inputs": [],
			"name": "violationType",
			"outputs": [
				{
					"internalType": "enum Storage.ViolationType",
					"name": "",
					"type": "uint8"
				}
			],
			"stateMutability": "view",
			"type": "function"
		}
	]
}